S0160000496F5452616D6F52656E657361732E73726563A2
S31500000000B01E0720F9E301006DDE0100F5E30100F3
S31500000010F5E30100F5E30100F5E30100000000004F
S31500000020000000000000000000000000F5E30100F1
S31500000030F5E3010000000000DD310000853200001C
S3150000004069070000190F000091C10100E9C1010014
S3150000005041C20100B5A40100F1A401008D8D01008B
S31500000060318C01000D8D01003D8B01003D9E01008C
S31500000070999C0100119C0100559D0100FFFFFFFFA7
S31500000080FFFFFFFFFFFFFFFFFFFFFFFFFFFFFFFF7A
S31500000090FFFFFFFFFFFFFFFFFFFFFFFFFFFFFFFF6A
S315000000A0FFFFFFFFFFFFFFFFFFFFFFFFFFFFFFFF5A
S315000000B0FFFFFFFFFFFFFFFFFFFFFFFFFFFFFFFF4A
S31500000400FFFFFFFFFFFDFFFFFFFFFFFFFFFFFFFFF8
S31500000410FFFFFFFFFFFFFFFFFFFFFFFFFFFFFFFFE6
S31500000420FFFFFFFFFFFFFFFFFFFFFFFFFFFFFFFFD6
S31500000430FFFFFFFFFFFFFFFFFFFFFFFFFFFFFFFFC6
S31500000440FFFFFFFFFFFFFFFFFFFFFFFFFFFFFFFFB6
S31500000450FFFFFFFFFFFFFFFFFFFFFFFFFFFFFFFFA6
S31500000460FFFFFFFFFFFFFFFFFFFFFFFFFFFFFFFF96
S31500000470FFFFFFFFFFFFFFFFFFFFFFFFFFFFFFFF86
S31500000480FFFFFFFFFFFFFFFFFFFFFFFFFFFFFFFF76
S31500000490FFFFFFFFFFFFFFFFFFFFFFFFFFFFFFFF66
S315000004A0FFFFFFFFFFFFFFFFFFFFFFFFFFFFFFFF56
S315000004B0FFFFFFFFFFFFFFFFFFFFFFFFFFFFFFFF46
S315000004C0FFFFFFFFFFFFFFFFFFFFFFFFFFFFFFFF36
S315000004D0FFFFFFFFFFFFFFFFFFFFFFFFFFFFFFFF26
S315000004E0FFFFFFFFFFFFFFFFFFFFFFFFFFFFFFFF16
S315000004F0FFFFFFFFFFFFFFFFFFFFFFFFFFFFFFFF06
S31500000500747F0120FD014400787F012064054000CE
S315000005107C7F0120FA014300807F0120FB01430814
S31500000520847F0120FC014310887F0120FF014500E4
S315000005308C7F0120FE014508C8870120A7211408E9
S31500000540CC870120A4211410D0870120A6211420D5
S31500000550D4870120A5211428D8870120BF011600C1
S31500000560DC870120BC011610E0870120C0011618A7
S31500000570E4870120BD0116202000000020000100B4
S315000005802F0000002F0001000C00010011000000E8
S3150000059030000000300001002400000024000100AB
S315000005A024000200240003002400040024000500A7
S315000005B013000000170000002300000021000000C7
S315000005C021000100070000000700010007000200EB
S315000005D007000300070004000700050007000600E7
S315000005E00700070012000000440000000800000099
S315000005F00B00000041000000400000004000010028
S3150000060004000000430000002B0000002B000A003D
S315000006102B000B002B000C002B000D002B00010003
S315000006202B0002002B0003002B0004002B0005000A
S315000006302B0006002B0007002B0008002B000900EA
S315000006400600000006000A0006000B0006000C006B
S3150000065006000D0006000E0006000F000600010051
S31500000660060002000600030006000400060005005E
S31500000670060006000600070006000800060009003E
S3150000068015000000150001001500020031000000F1
S315000006902A000000450000001000000003010000D1
S315000006A003000000030001000F0000000D00000021
S315000006B02D000000420000002C0000002C0001006C
S315000006C02C0002002C00030032000000280000006D
S315000006D018000000140000001400010014000200BD
S315000006E014000300140004001400050014000600A2
S315000006F0140007001400080014000900340000006C
S31500000700340001001600000016000100350000004C
S315000007103600000036000100220000003300000011
S31500000720330100002900000010B5054C237833B9C9
S31500000730044B13B10448AFF300800123237010BDAE
S31500000740C004FE1F00000000C820090008B5034BC6
S315000007501BB103490348AFF3008008BD0000000049
S31500000760C404FE1FC820090000B583B0EFF305805E
S3150000077003F040F80E4B186870B1436A1A682E21D0
S31500000780C3F8C01093060ED4EFF30383A3F1100051
S3150000079040B201931DF0F2FCEFF3058003B05DF863
S315000007A004EB03F025B80121083004F047FEEBE71F
S315000007B0DC04FE1F30B1044B4069984214BF072089
S315000007C000207047012070474F4E514D20B14FF029
S315000007D002230360002070470120704730B50546AC
S315000007E087B0012290F82C30A96A006B8DF803209F
S315000007F06A6B8DF804300023CDE90201CDE904329D
S315000008002B689A681868D3690DF103019847044666
S3150000081018B99DF8033001A813B9204607B030BDBA
S31500000820AB6B63B19847049B013304939DF8033087
S31500000830002BF2D0039B002BE2D11424EDE701201C
S3150000084004F000F8039B3BB99DF80330002B18BF5A
S315000008501424204607B030BD013B0393E6E700BFF2
S315000008602DE9F04FC1B00446884617460021FC2208
S3150000087001A81E46009130F0E7FE002C58D0B8F1D2
S31500000880000F55D0002F53D0002E57D047EA06054B
S3150000089015F0030552D1334B62699A4254D1A269CD
S315000008A097424BD3E369B91901338B4246D390453E
S315000008B050D308EB060293424CD3A368B3F5807F6E
S315000008C04CD84FF000091BE008EB05022368D3F86B
S315000008D008C0186859465346DCF80CB0D847844619
S315000008E055442046BCF1000F24D184F82CC0C4F82E
S315000008F030A0FFF773FF8446E0B9AE421AD9A36869
S3150000090007EB050BBBFBF3FA03FB1ABAA3EB0A03CF
S31500000910A6EB050A9A4528BF9A46B9F1000FD3D12E
S31500000920524608EB0501684630F066FE6A46CDE79A
S315000009304FF0010C604641B0BDE8F08F4FF0030C5C
S31500000940604641B0BDE8F08F4FF0070C604641B0FD
S31500000950BDE8F08FA3684FF00309D1E74FF0090C0B
S31500000960E8E700BF4F4E514D78B110B5084B4269CC
S315000009709A42044607D103689A68186853689847EC
S315000009800020606110BD072010BD0120704700BF28
S315000009904F4E514D60B159B1064B42699A4205D14D
S315000009A001231830C1E90030002070470720704746
S315000009B0012070474F4E514D00283BD02DE9F8439A
S315000009C00F4689B315467AB31E4683B31C4B42695C
S315000009D09A42804630D183699D4228D3C369AA19B9
S315000009E00133934223D3D8F800309B6805F12040A9
S315000009F01B6A800E984725F07C41B0B9D8F80030C4
S31500000A00C1F180649A681868D2F80890B44228BF89
S31500000A1034463A4601F1C041234625442744C84797
S31500000A2018B9361BDFD100E00120BDE8F8830320AA
S31500000A30BDE8F883012070470720BDE8F88300BFB2
S31500000A404F4E514D38B5002844D0002942D00B688E
S31500000A50002B3FD01A68002A3CD02449044640693E
S31500000A60884241D022605968A162D968A1639B6817
S31500000A706363D2E9011310681B689847054650BBAB
S31500000A80214651F8043B9A68186853699847227CB6
S31500000A90054612B310BB6168E36801F1C0414FF02F
S31500000AA0C0400139A061E161196821620420012A70
S31500000AB060620BD010FB0230043300E0216A53F869
S31500000AC0042B8A4238BF22628342F7D1074B636107
S31500000AD0284638BD0125284638BD012523689A6871
S31500000AE0186853689847F6E70E25F4E74F4E514DC0
S31500000AF02DE9F843002848D00D46002945D0274B5C
S31500000B00164642699A42044643D18369994238D3CC
S31500000B10C2698B1901329A4233D3007CE26880B3F2
S31500000B2002EB8000002752F8043BB5FBF3F103FB10
S31500000B30115139B9B6FBF3F103FB116111B99F42AB
S31500000B4038BF1F468242EED1DFB1C6B14FF0000971
S31500000B504FF0010823689A681868136905EB0901C4
S31500000B603A4698470346B94420465BB984F82C8038
S31500000B702763FFF733FE034620B94E45EAD8002324
S31500000B8000E003231846BDE8F88301231846BDE8B4
S31500000B90F88307231846BDE8F88300BF4F4E514D32
S31500000BA00F4A104B002818BF1346032102221A6071
S31500000BB01A601A601A601A601A6019601960196062
S31500000BC01960196019601960196019601960196057
S31500000BD019601A601A601A601A601A601A60704703
S31500000BE020430640204106400F4A104B002818BFFC
S31500000BF01346072106221A601A601A601A601A60E4
S31500000C001A60196019601960196019601960196015
S31500000C10196019601960196019601A601A601A6003
S31500000C201A601A601A607047204306402041064049
S31500000C30F8B5294B33F8207006460D46144637B1F1
S31500000C40013FBFB23046FFF7CFFF002FF8D1AD000E
S31500000C5045F4A045ADB20E2705E0FFF7A1FF6D00F4
S31500000C60013FADB209D015F4004F3046F5D0FFF77D
S31500000C70BBFF6D00013FADB2F5D13046FFF7B4FFC3
S31500000C801025FFF78DFF05E0FFF78AFF6400013DA1
S31500000C90A4B209D014F4004F3046F5D0FFF7A4FFF4
S31500000CA06400013DA4B2F5D10C490D4A002E18BFCF
S31500000CB00A460C2315600121156015601560156044
S31500000CC01560013B1160FCD1136013601360136063
S31500000CD013601360F8BD00BFE004FE1F204306400A
S31500000CE02041064070B5384B33F8205006460C4676
S31500000CF035B1013DADB23046FFF776FF002DF8D194
S31500000D00A40044F4C044A4B20E2505E0FFF748FF52
S31500000D106400013DA4B209D014F4004F3046F5D06A
S31500000D20FFF762FF6400013DA4B2F5D12749284BC5
S31500000D30002E08BF0B460C221D6001211D601D60A0
S31500000D401D601D601D60013A1960FCD11A601046D5
S31500000D501A6011461A6010251A601A601A6001227C
S31500000D601960196019601960196019601A601A60B3
S31500000D701A601A601A601A601C681A60400080B215
S31500000D80C4F3C004013D1A6040EA04001A601A6008
S31500000D901A601A6019601960196019601960196083
S31500000DA0DED11D600C221D6001211D601D601D60CD
S31500000DB01D60013A1960FCD11A601A601A601A6047
S31500000DC01A601A6070BD00BFE004FE1F2041064095
S31500000DD02043064070B502210546FFF783FF10F059
S31500000DE0220F29D0164E20234FF400420021284618
S31500000DF026F82530FFF71CFF00212846FFF772FF73
S31500000E004FF40034034604E0FFF76CFF013C034651
S31500000E1012D01B044FF000012846F5D4FFF762FFFD
S31500000E2040F4807082B200212846FFF701FF0123BB
S31500000E3026F82530002070BD4FF0FF3070BD00BF92
S31500000E40E004FE1F40F6E15340F2E112002918BF0C
S31500000E501A4610B5074B03EB800304465A8004215B
S31500000E60FFF7E6FE20464FF49052BDE81040002101
S31500000E70FFF7DEBEE004FE1FF8B504460D4601216D
S31500000E8016461F46FFF72EFF01212046FFF72AFFD1
S31500000E9000F02400242830D1194B03EB84035B882F
S31500000EA05A0503D5328842F0010232801B0503D56C
S31500000EB0338843F00203338020460521FFF712FFF3
S31500000EC0460544BF01233B80040503D53B8843F018
S31500000ED002033B80810644BF01232B80420644BFA8
S31500000EE002232B80030644BF03232B8010F480705B
S31500000EF002D004232B800020F8BD4FF0FF30F8BD50
S31500000F00E004FE1F08B50121FFF7ECFE80F00400A7
S31500000F1040F3800008BD00BF00B583B0EFF3058045
S31500000F2002F068FCEFF303820C490192A2F1100370
S31500000F3009685BB251F83330186800F04FFDEFF3E3
S31500000F400383A3F1100040B201931DF017F9EFF3EC
S31500000F50058003B05DF804EB02F04ABCB43A030026
S31500000F60034601224068C3F80C2309F055B900BFB7
S31500000F702DE9F041CB68C0F8D4320B69C0F8D832FD
S31500000F808AB00B88794CADF8123040210023CDE9A8
S31500000F900633CDE908330546ADF81010E36806A917
S31500000FA004A817469847002840F0AC8023690590AE
S31500000FB0014605AA04A898479DF9143085F814330C
S31500000FC013F1210F00F09E80694A002B1168C0F2D0
S31500000FD0928003F1604202F56142302082F80003FC
S31500000FE051F833301D60D5E9B56404A81DF04CF8FE
S31500000FF0604B9E4200F08F805F4B9E4200F0A080C7
S31500001000237843F001032370012003F01BFC3368AF
S3150000101043F002033360336843F0040333602378FC
S3150000102043F040032370D5F8B0322362D5F8B432CA
S31500001030A3610023A3630D23A36440F20F7323650A
S315000010404E4BA3623723336194F8583043F00103C3
S3150000105084F858304FF4E0232367AA68D068538A8F
S3150000106043EA0043C6F8C030AB681B8AC6F8C830EE
S3150000107040F2EE511423B1603365A36F002F45D1C2
S3150000108067F31143A367A36F0E2262F30503A367F9
S31500001090237C43F001032374337E43F00403337649
S315000010A0236B43F400132363236B43F480232363EE
S315000010B0236B43F4800323630027BDF81200C5F8B1
S315000010C00873FFF787FE01301CD0BDF812003946C1
S315000010D0FFF7B8FE33232C200121CDE90210CDE91C
S315000010E00033274A27492B4605F5377004F06EFB77
S315000010F00AB0BDE8F081244A03F00F000244302014
S3150000110010766DE743200AB0BDE8F081022262F353
S315000011101143A367B7E7DFF874800121D8F81830C8
S31500001120202098470021D8F8208040F60600C047C6
S31500001130022003F087FB012140F60600C0475FE767
S31500001140DFF848800121D8F8183010209847002190
S31500001150D8F8208040F60310C047022003F072FB47
S31500001160012140F60310C0474AE700BF2C1A0900C8
S31500001170B43A030000430640004106409F0FFF4774
S31500001180610F000028340300FCEC00E090380300F7
S3150000119070B5D0F8086382B00025012E0446ADF87C
S315000011A00250ADF80450ADF806501ED0D0F8D46207
S315000011B080890DF1060301AA0DF10201FFF75CFE1D
S315000011C0013031D0BDF80230042B2FD0032B5CD078
S315000011D0022B51D0012B31D1336865F341033360C3
S315000011E0336865F38203336028E08089FFF78AFE5F
S315000011F0D0B1A368C4F808539D71D4E9010300F681
S31500001200384293424ED000F6844293424BD004F5C6
S315000012103774204604F042FB33221146204604F080
S31500001220B3FA204604F0A4FA02B070BD336843F066
S3150000123002033360336843F00403336023680122FA
S3150000124013F00403C4F8082315BFA368A2689A71B3
S315000012509371D4E9010300F6384293421ED000F69A
S315000012608442934208BF012119D004F53774204601
S3150000127004F014FB6522D0E7336843F002033360C1
S31500001280336865F382033360D8E7336865F3410357
S315000012903360336843F004033360CFE7002108F07E
S315000012A0C3FFE2E72E46314608F0BEFFAFE700BFB8
S315000012B038B590F91443D0F8D45220461CF05EFF9E
S315000012C0002C0DDB63099B0003F16043012003F54D
S315000012D0614304F01F0400FA04F4C3F880411C6063
S315000012E02B6843F040032B602B6843F020032B60F0
S315000012F038BD00BF2DE9F041CB68C0F8D4320B6988
S31500001300C0F8D83286B0534A0988ADF806100023D3
S3150000131004464020ADF80400CDE90233CDE904339C
S31500001320D76802A901A8B84700287DD1D4E9B568D5
S31500001330002E79D0B8F1000F76D0336860F38613AB
S315000013403360336860F34513336040F2411305465A
S31500001350019302A901A8B84778B398F8003043F082
S31500001360010388F80030022003F06CFA94F91403A4
S31500001370002839DB4409A40004F1604404F5614403
S3150000138000F01F034FF0010808FA03F8C4F8808044
S31500001390BFF34F8FBFF36F8F1CF0F0FE2E4BC4F8D8
S315000013A080819E4225D02D4B9E4242D001A81CF042
S315000013B041FE284606B0BDE8F081029A137843F054
S315000013C00103137098F8003043F0010388F80030E9
S315000013D0022003F037FA029A137865F300031370BC
S315000013E094F914030028C5DA1CF0C8FE1A4B9E4275
S315000013F0D9D11B4B00211B6A40F6060098479DF881
S31500001400043043F4813343F4807302A9019301A8A5
S31500001410B8470028CAD1029B1A685204C6D51A6872
S3150000142060F38E321A60C1E74325284606B0BDE850
S31500001430F0810B4B00211B6A40F6031098479DF87C
S31500001440043043F4407302A9019301A8B847002869
S31500001450ACD1E0E72C1A09000043064000410640E3
S31500001460903803002DE9F04F0B6883B05B070190BD
S3150000147040F1AD80D1F8B832002873D0002402467E
S3150000148012E01F2BD1F8B46215BF00254FF080453E
S31500001490F551C6F8F051904234D052680133013408
S315000014A003F01F03002A5ED0D1F8B4C21F010CEB73
S315000014B0031E5CF807C0BCF1000F7ADBD2E902C953
S315000014C0A9EB0C08B8F1100F02DC1CF01F0F22D19B
S315000014D0CEF808C0D1F8B46206EB070CACF806806B
S315000014E05668002ECDD1D1F8B46206EB070C1F2B3F
S315000014F0CCF80C002FD0D1F8B4624FF08055904252
S31500001500F551CAD1D1F8B4E25EF8076046F0005C46
S315000015104EF807C0C1E70CF11F0A2AF01F0AAAEB12
S315000015200C0EB8F1000FF1440DDD9B4608F1FF3EAD
S31500001530634600E0936813F80EC00AF80EC0BEF1C9
S31500001540010EF7D25B46C2E902A9D1F8B452D446DD
S3150000155005EB070EBCE7D1F8B4524FF0A046C5F82C
S31500001560F06198E70446EFF3108072B6D1F8BC221A
S315000015702244C1F8BC2280F31088C1F8B8325CB1AD
S31500001580013B03F01F03D1F8B4521801013C2A585D
S3150000159042F000422A50F3D1D1F8D832986810F0C0
S315000015A0010022D11A7A42F001021A7203B0BDE894
S315000015B0F08F019B99685A6A0E310E3A01A899601C
S315000015C05A6210F0DFFC492003B0BDE8F08F0346F5
S315000015D001A899685A6A0E310E3A99605A6210F05B
S315000015E0D1FC142003B0BDE8F08F002003B0BDE8A5
S315000015F0F08F00BF2DE9F04784B00023CDE9023318
S31500001600009338B3D0F818800446B8F1000F21D003
S315000016100E46F9B11746EAB143600368172B6ED838
S31500001620DFE813F01D009200310138011D001D0096
S315000016301D001D007400740063016D006D006D00D7
S315000016406D006D006D007B00690124016D006D0069
S315000016506D007B000125284604B0BDE8F0870D68C3
S3150000166015F0040500F05B81006982680569A2F146
S315000016700E018160A2F110018D4200F26681416A7D
S315000016800E314162002B00F05081062B00F04D8197
S315000016904FF0FF374FF6FF71DFF83CE342F80C7C62
S315000016A0B84642F8101CB1684D8ACF6845EA07452E
S315000016B042F8085C0969A3F1050C0904BCF1010FA5
S315000016C042F8041C40F25081072B00F0688190F824
S315000016D03030062B06BF41F4064343F0DD0341F4E8
S315000016E000632DBA1BBA42F8085C42E904E842F8E6
S315000016F0043C3146FFF7B6FE00256060ABE7426961
S315000017000023442141601D461360A4E70B685B0774
S3150000171015D41423636000259DE701F5377004F0A6
S31500001720C9F839463046FFF7E5FD0024D6F8B00281
S3150000173020440C30103410F005FC802CF6D1002526
S31500001740284604B0BDE8F0870B68002BF7D101935B
S31500001750994601F11D0323F00F03C1F8B03201F1E0
S31500001760AD0323F00F03C1F8B4324FF0004A002353
S315000017701A46D8F83C0601A910F0BEFA4FEA09123B
S315000017800546002840F0F58001998B681F3323F049
S315000017901F038B60D6F8B03203EB0913D960D6F875
S315000017A0B032896803EB09139960D6F8B01201EBE1
S315000017B0091109F10109C868436980681B1A23F0F9
S315000017C01F03CB80D6F8B032B9F1080F43F802A058
S315000017D0CDD1D6F8B022136F43F080431367D4F807
S315000017E01C80C6F80880D6F810333A88B281002BE0
S315000017F000F0DA805B68002B00F0D68002A89847DC
S31500001800B368029ADA60B368039A1A616F4B684646
S315000018105B689847009B198B44F23542914200F071
S31500001820CA8001226A4B394630461A70FFF7A0FB80
S31500001830B368DB68C8F80C30B3681B69C8F81030A9
S3150000184018B1022333604323636040F2DC53C8F8C7
S315000018502430012388F80530002388F806303368E1
S31500001860A26943F00203C6E90032F4E64FF4467279
S31500001870002130462FF0E8FE7B69C6F81033E36995
S31500001880B3600025E7E60B6813F002053AD143235F
S315000018904360E0E60B685A077FF53BAF91F91433D6
S315000018A0C069002B0DDB5A094A4C2032012103F096
S315000018B01F0301FA03F344F82230BFF34F8FBFF33F
S315000018C06F8FD6F8D4321A686FF386121A60D6F87C
S315000018D0D43219686FF3451119603368002223F07A
S315000018E00403336015468271B5E68A6843699279C6
S315000018F01A600025AFE6D1F80C33012B2DD0002558
S315000019006560A8E613F00401C26919D01523436087
S31500001910D6F8083393713046FFF7CAFC0FE7142355
S315000019204360103010F02EFB95E6A16842F8101CBB
S31500001930E76842F80C7C91FA81FE97FA87F8B2E6DE
S3150000194043F0040333604160E2E74323636004F13C
S31500001950100010F017FB00257DE60023C1F80C33BC
S315000019600846FFF715FCCAE741F4006343F0060397
S31500001970B7E6B9F1000F0CD009F1FF352D01D6F805
S31500001980B00228440C30103D10F0DCFA15F1100FAF
S31500001990F5D1012243233260002563605BE641F402
S315000019A0004343F035039CE67B68C8F80C30B36807
S315000019B0BA681A612AE79A7E352A7FF432AF93F81D
S315000019C03420023A18BF01222CE700BF2C1A090066
S315000019D0E804FE1F00E100E00000FFFF002800F021
S315000019E017822DE9F04FD0E9B5138346986A0A6944
S315000019F0986289B010F4101F029101900A6140F0BC
S31500001A006A81019B590315D4019B5B020FD5029B8A
S31500001A109B6A13F0010FDBF8083040F09A8101222F
S31500001A209A71DBF8003043F00403CBF8003009B0BC
S31500001A30BDE8F08FDBF8043000220692002BE3D0DD
S31500001A40DBF8C412DBF8B0220801135813F08056F5
S31500001A5040F01282002BD7DB01394FF0010901E07B
S31500001A60002CD1DB4F4609F1010901EB090303F014
S31500001A7007031D0102EB0313545914F0805FEFD0E6
S31500001A800244B3F80480D368059308F10208C3F84A
S31500001A902480DBF8B0321D4406A9D5F80CA0002F2F
S31500001AA000F0C1803A46CDF80C90574689469246DA
S31500001AB035E0DBF8B032069A2B44072CDA60DBF807
S31500001AC0B0322B4406F10106DA68936803F11F036E
S31500001AD023F01F039360DBF8B0322B44DA68926878
S31500001AE09A60DBF8B0222A44D1684B698968A3EB77
S31500001AF0010323F01F03D380DBF8B0322B4408BF69
S31500001B004FF040429880DBF8B0321ABF4FF00042E7
S31500001B105A511A67564500F07C81DBF8B032DBF883
S31500001B20C442344404F0070403EB04134946DA685C
S31500001B30D88893680344D360DBF8B032621C02F0A5
S31500001B40070203EB021203EB0413D068DA68DB88A2
S31500001B505060A8EB0308DBF8B03203EB0413250151
S31500001B60DB689F61DBF80430D3F83C0600231A4695
S31500001B7010F0C2F800289CD053464946BA46DDF814
S31500001B800C901F46002E40F06781B14548D907EEFC
S31500001B90901A3046002500E01846DBF8C432DBF820
S31500001BA0B022034403F0070302EB0312072BD2F81B
S31500001BB00CC0DCF8082002F11F0222F01F02CCF84C
S31500001BC00820DBF8B02202EB03124FEA0314D2F826
S31500001BD00CC0DCF808109160DBF8B02202EB031EA3
S31500001BE0DEF80CC0DCF81420DCF808C0A2EB0C0C04
S31500001BF02CF01F0CAEF806C0DBF8B02202EB031285
S31500001C009580DBF8B0320DBF4FF040424FF00042F6
S31500001C101A511A67874200F10103BDD117EE901AD7
S31500001C20B74200F20781DAF808304344CAF80C30AC
S31500001C300023CAF80430DBF8C422541EDBF8042063
S31500001C404C44D2F83C061A4604F0070410F054F847
S31500001C50002800F08980CDF818A0DBF8B03203EB3D
S31500001C600413072CC3F80CA0DAF8083003F11F039D
S31500001C7023F01F03CAF80830DBF8B02202EB041287
S31500001C809360DAF81420A2EB0303DBF8B02202EB30
S31500001C90041223F01F03D380DBF8B03203EB0413E6
S31500001CA04FF000029A804FEA041300F0B780DBF889
S31500001CB0B0224FF00041D150DBF8C412DBF8B0225D
S31500001CC0494401F007010801CBF8C4121358002B50
S31500001CD0BFF6BCAEB5E0DBF80430002B3FF491AEA6
S31500001CE0DBF8BC42002C3FF48CAEDBF8C03209E0D6
S31500001CF0013303F01F03CBF8BC42CBF8C032002CF3
S31500001D003FF47FAEDBF8B4121A0101EB03108A58D8
S31500001D10002A04F1FF34FFF674AED200E8D5C2689B
S31500001D2093680E339360DBF8C022DBF8B43203EB22
S31500001D300213DA68536A0E3B5362DBF8C032DBF8F3
S31500001D40B40200EB03100C3010F01CF9DBF8C032C3
S31500001D50CEE700229A71DBF8003023F00403CBF8BB
S31500001D60003009B0BDE8F08F0598DBF808308568CB
S31500001D704363554BA9891B78079049BA89B243BB7F
S31500001D80426A0F3222F01F0202F10A03143A2B4470
S31500001D902A4405F10E001D68156253F8045CD561EE
S31500001DA053F8085C956153F80C5C556153F8105C68
S31500001DB0156153F8145CD56053F8185C956053F8B8
S31500001DC01C5C5560203B9842A2F12002E3D30798A1
S31500001DD08568436A1035103BB1F5006F8560436234
S31500001DE022D048F2DD6399421ED040F6060399429E
S31500001DF05DD048F2350399425FD0DBF81033002BF3
S31500001E0051D01B68002B4ED09847DDF818A024E768
S31500001E1070474946BA46DDF80C9004E7DBF8B03265
S31500001E204FF040421A6747E70146DBF8040008F026
S31500001E300FFEEAE7DBF8C4324B4403F00703CBF8A6
S31500001E40C432DBF8D8321A69D2073FF5DDAD1A7C09
S31500001E5042F001021A74D7E5DBF8B0220391631E43
S31500001E6003F0070302EB03130022DB6805A85A60A0
S31500001E7010F068F8039988E601F00701104402EBB8
S31500001E800112C368B2F80480059308F10208C3F88A
S31500001E902480DBF8B03203EB01114FF00109D1F8D1
S31500001EA00CA006A9BFE607A810F04CF8ADE701465E
S31500001EB0DBF8040005F002FEA7E70146DBF80400A4
S31500001EC00AF07AFEA1E700BFE804FE1F30B5002342
S31500001ED083B0CDE9003300284DD000294BD00B68E4
S31500001EE0002B48D04A68002A45D0334A0446806908
S31500001EF0904251D023604A6862600A6962618A68CA
S31500001F00E260CA682261D3E9011218681268904734
S31500001F100546002830D123689A68186853696946CF
S31500001F209847054658BB019B2269A360D2E9002168
S31500001F3011B91868824231D95868904225D31B6876
S31500001F40934222D84B1E134498421ED3E9B16368CC
S31500001F505A61D4E90121236989685B68B3FBF1F30F
S31500001F605360D4E901139B68134A9B0828468B608B
S31500001F70A26103B030BD0125284603B030BD2368F9
S31500001F809A68186893699847F6E723689A68186804
S31500001F90936903259847EFE70E25EDE763685861D7
S31500001FA0D4E9011253681068926801331B1AB3FB17
S31500001FB0F2F34B60D5E700BF4F4E584C70B405683E
S31500001FC005B3F9B11446EAB10669726862B9806967
S31500001FD00F4A904219D1AA68286855689B000A469C
S31500001FE0AC46214670BC60473668324402F1FF3C7D
S31500001FF0614504D8B14202D3CE189642E7D90320F0
S3150000200070BC7047012070BC7047072070BC7047D9
S315000020104F4E584C28B370B40468ECB1E1B1154684
S31500002020D2B10669726852B13668324402F1FF3C99
S31500002030614514D8B14212D3CE1896420FD88069A2
S315000020400A4A90420FD1A268206894689B000A460B
S31500002050A446294670BC6047012070BC7047032027
S31500002060FBE701207047072070BC70474F4E584C65
S31500002070F0B585B0002834D003680446002B30D074
S315000020800E46174681691A4A914226D1816805692A
S315000020908A680868696806FB020051B12D68294400
S315000020A001F1FF3C604520D8A8421ED3C5198D42D8
S315000020B01BD89D68014618682B699847054668B97C
S315000020C063695BB1E2688DF80000CDE901266846D8
S315000020D003979847284605B0F0BD0725284605B062
S315000020E0F0BD0125284605B0F0BD0325F6E700BF83
S315000020F04F4E584C2DE9F04788B004468A462022B8
S31500002100002168462FF0A0FA002C48D02668002E41
S3150000211045D0294BA2699A422ED123695A68002AD2
S3150000212041D01B68A26895689A46AD0835D005F07F
S3150000213007084FEA88090027EB1B072BB3683068AE
S315000021405C681DD84B4652466946A04788B9424648
S315000021504946B8F1000F1CD0ADF10400002301E0A0
S31500002160934216D250F8044F013403F10103F7D01D
S315000021701F2008B0BDE8F087072008B0BDE8F0874B
S31500002180202352466946A0470028F2D10822202182
S31500002190E2E71744BD428A44CED80020E9E7012091
S315000021A008B0BDE8F087A2681B6811688B42BAD8F0
S315000021B095680AFB051AB8E74F4E584C80B110B522
S315000021C00368044673B1084A8169914206D19A6848
S315000021D01868936998470023A36110BD072010BDB6
S315000021E001207047012010BD4F4E584C70B5044673
S315000021F082B00020A36801900D461B68D4E9000157
S315000022001646984788B9A3682068DB682A460521E0
S31500002210984750B9A3682068DB6801AA0721984748
S3150000222018B9019B0BB10123336002B070BD00BF2A
S315000022302DE9F04104460B30884615F00FF9237856
S31500002240E92B054619D0EB2B14D004F1160015F036
S3150000225005F904F1240015F007F904F1130015F04F
S31500002260FDF804F1200015F0FFF84CF25136304627
S31500002270BDE8F081A378902BE7D104F1160015F0A4
S31500002280EDF8064604F1240015F0EEF8064304F1D5
S31500002290130015F0E3F8074604F1200015F0E4F802
S315000022A057EA0003E1D0002EDFD015F01F06DCD17F
S315000022B0A81E204415F0D2F8054604F5FF7015F067
S315000022C0CDF8ADB24AF655239D4280B201D0984270
S315000022D0CDD10023C8F800303046BDE8F08100BFFC
S315000022E0F8B506460D46FFF7A3FF044608B9204693
S315000022F0F8BD06F5FF7015F0B1F8074606F5E37070
S3150000230015F0B2F80028F2D096F8C231002BEED0C4
S315000023104AF65522BBB2934204BF28600024E6E782
S31500002320F0B50C46ADF5017D154619460646A318CF
S3150000233000209DF82022605505F108001A712044FE
S315000023400C35879F15F092F86019869915F08EF86E
S31500002350B2683068956801233A462146A84710B10D
S315000023600DF5017DF0BD01464FF4007268462FF071
S315000023706BF9B36830685D683A4601236946A84739
S315000023800028EDD1631E6A4604F2FF1401E0A34261
S31500002390E6D013F8015F12F8011B8D42F7D0012039
S315000023A00DF5017DF0BD00BF2DE9F04F2A4E044624
S315000023B000F1110A894690461F4696E80F00ADF5D2
S315000023C0097D04AD85E80F004FF40072514608A858
S315000023D09DF848B22FF010F9D4F8286466B30023AC
S315000023E055F826200193CDF808B000974846434695
S315000023F008A9FFF795FF0546C8B908A950464FF446
S3150000240000722FF0F9F8D4F82834022B0FD803EB1A
S315000024104303D4F820249B00022142F80380D4F819
S3150000242020241A445760D4F82024134459722846AD
S315000024300DF5097DBDE8F08F4FF40072314608A80E
S315000024402FF002F955238DF81E32AA238DF81F327C
S3150000245001232374C3E700BF383403002DE9F04F8E
S31500002460D0F82854ADF5057D032D9DF83CB29DF8B6
S3150000247038A21E4600F5077904BF012380F81432FE
S3150000248004468846174649464FF4007204A82FF0C2
S31500002490B3F8BBF1010F35D007F1FF3B4FF40072E3
S315000024A0002104A82FF0D0F855238DF80E32AA2368
S315000024B08DF80F32CDE901BA0096404601234FF45C
S315000024C0DF7204A9FFF72CFF0546B0B904A94FF443
S315000024D0007248462FF090F8D4F82814D4F8203427
S315000024E001EB4101890002225F50D4F820340B44ED
S315000024F05E60D4F8203419444A7228460DF5057DED
S31500002500BDE8F08FD4F8203405EB450503EB8505CF
S315000025100523029355F80C3C0096013B0193D4F831
S31500002520183207F1FF3BABEB03034FF4E77204A944
S315000025304046FFF7F5FE05460028DED101464FF47A
S31500002540007248462FF080F8552384F81A34AA23DF
S3150000255084F81B34A2E700BF2DE9F041804601F163
S3150000256013000D461C46174614F078FF064605F183
S31500002570200014F079FF034605F148001D4614F0CB
S315000025807FFF56B99DB950EA010319D03860072379
S3150000259044B123700020BDE8F08135B93E600423C4
S315000025A0002CF6D12046BDE8F0810023F0E73D601F
S315000025B0D8F82C34B3F5800F94BF06230B23E7E736
S315000025C00120E8E72DE9F04190F81C34012B84B096
S315000025D00D4614460CD0176FAB68D4F890109C6863
S315000025E0286801233A46A44604B0BDE8F041604796
S315000025F0D0F820C4176F0646D0F8280488B100EB3F
S3150000260040006246002303E0984202F10C0208D023
S315000026105CF823108F4203F10303F5D1137A012BE3
S31500002620DAD00023D4F89010039303AA3046FFF7BC
S3150000263093FFD0B9D6F82884B8F1000F18D0D6F891
S3150000264020C408EB480E6246034603E09E4502F1AD
S315000026500C0245D05CF823108F4203F10303F5D139
S315000026605268039B9A4207D0032004B0BDE8F0816C
S31500002670D6F82434002BF7D0AB68226F9F68D4F8C5
S31500002680901028680123B8470028EED1D4F890109E
S3150000269003908DF80B0003AA0DF10B033046246F4F
S315000026A0FFF75AFF0028E0D1D6F828E4BEF1000F64
S315000026B068D0D6F820740EEB4E0C3A46034603E07B
S315000026C09C4502F10C023DD057F823108C4203F1D1
S315000026D00303F5D15268039B9A4218BF0320C4E74F
S315000026E0D6F824349845BFD2B8F1030F337C21D8ED
S315000026F0012BB9D13946D6F82C249142B4D8039B84
S31500002700013B1F449742AFD20CF1040C09E0DCF800
S31500002710002013449942A7D3013040450CF10C0C1C
S31500002720AAD05CF8043C9942F1D200289CD09F4282
S31500002730F2D399E7012B97D196F81432012B93D156
S31500002740791ED8E7BEF1020F1CD9BEF1030F23D0C4
S315000027509DF80B200092012301932246039B2946F4
S315000027603046FFF77BFE00287FF47FAFD6F828249B
S31500002770D6F83034039901325B1AC6F82824C6F815
S31500002780303472E79DF80B200092039B22462946BF
S315000027903046FFF709FEE6E70F23671E0093D6F8DB
S315000027A030343A4629463046FFF7FEFD00287FF4CE
S315000027B05CAF9DF80B3001902246C6F81872294688
S315000027C000933046039BFFF749FECCE72DE9F8431B
S315000027D002F1080C064611F80C409DF824E09046DC
S315000027E089461D4601EB0C0014B98B185C7AA4B11E
S315000027F0BEF1010F18D009EB0801087B10B10020CB
S31500002800BDE8F8834B7B002BFAD1887B0028F6D1F4
S31500002810CB7B002BF4D10120F2E79C7A002CE7D188
S31500002820DB7A002BE4D1F6E714F01EFE022D0446F7
S3150000283028D8D6F8203405EB45006F0043F8204031
S31500002840002408F10C0C09EB0C0019F80C3043B904
S3150000285009EB08014B7B23B98B7B13B9CB7B002B90
S31500002860D9D014F001FED6F820243D4402EB8502AF
S3150000287020445060D6F8203403EB85030121002064
S315000028805972BDE7089BD6F8207405EB4500E3189E
S3150000289047F820306F00D4E72DE9F04FD0F88430A8
S315000028A090228BB00446C0F88C209BB15A685568BC
S315000028B085B11E6876B1D0F88830082B0DD8DFE8D0
S315000028C013F02A003900160050005700CA0009010B
S315000028D00F001C001823C4F88C300BB0BDE8F08F35
S315000028E0224629463046FFF76DFE0028F5D1002323
S315000028F0C4F88C300BB0BDE8F08F96F81C34012B71
S3150000290000F00381AB6828681B6998470023336091
S315000029100028ECD0E1E7036FD0F89420A9681A44A8
S315000029204E68D0F89830D4F890102868B047002840
S31500002930DDD0D2E7D0F890000B3014F08FFDD4F83C
S31500002940943050EA0302CBD0A968226F8E682868BB
S31500002950D4F890101A44D4F89830B0470028C6D05E
S31500002960BBE7AB6828681B6998470028BFD0B4E767
S3150000297000230593B3493068884200F029813079F5
S31500002980022800F05D81C6F834549068C6F8380411
S315000029905069C6F83C041068C6F820041769C6F8E2
S315000029A024743160C6F81832337186F81C344FF43B
S315000029B00072FF2106F111002EF046FE4FF4007260
S315000029C0FF2106F507702EF03FFE0023337486F8CC
S315000029D014323372F360AFB118461A46D6F8201493
S315000029E0194401304A72D6F82014CA50D6F8201479
S315000029F0194487420A72D6F82014194403F10C03CD
S31500002A004A60EBD100230122C6F82C34C6F83034D4
S31500002A10C6F828343271D6F82434012B04F1A80103
S31500002A2004F1AC0240F20581337A002B00F0D78026
S31500002A303379012B00F0DF8096F81C34012B7FF4EC
S31500002A4056AFD6F820345A7A012A00F00F81F3687F
S31500002A500133F3604BE796F81C84B8F1010F75D08B
S31500002A60026F0692D0F89070AB6828685E683946A7
S31500002A700123B047064600287FF42FAF06A9384643
S31500002A80FFF7D6FB00283FF432AF0696AB682868FE
S31500002A90324639465E680123B04700287FF41DAFF1
S31500002AA006A93846FFF71CFC069A62B1AB6828688F
S31500002AB05D6839460123A84700287FF40EAF06A9B2
S31500002AC03846FFF7B5FB00283FF411AF0223C4F8E0
S31500002AD08C3002E7D0E925360693002E3FF407AF87
S31500002AE006AF02E000287FF4F8AEAB682868DB6822
S31500002AF03A4608219847069B013E03F101030693D7
S31500002B00F0D100283FF4F3AEE7E6F368012B00F0BE
S31500002B109B80013BF360D6F82804276FD6F8205433
S31500002B2000283FF4DAAE2A4600EB4000002304E01A
S31500002B30834202F10C023FF4D0AE55F823108F42C7
S31500002B4003F10303F4D100231372D0E600230693A6
S31500002B50D0F89090AB68026F5F6828684346494694
S31500002B60B847074600287FF4B8AE06A94846FFF7DF
S31500002B70B7FB069A002A76D0A96828684D684346AE
S31500002B804946A84700287FF4A8AE06A94846FFF79D
S31500002B90A7FB00289AD1069B002B97D1D6F82814BC
S31500002BA0256FD6F8200400293FF497AE01EB4101CA
S31500002BB0034604E0B94203F10C033FF48EAE50F82D
S31500002BC02720954207F10307F4D101221A728EE6F7
S31500002BD03379002B7FF41FAFD6F82474E7E6284636
S31500002BE0FFF704FB00287FF478AE33790122934285
S31500002BF032727FF421AFAB682868DB6806F22C429C
S31500002C0001219847804600287FF467AE96F8049025
S31500002C10D6F82C34C6F83034B9F1010F7FF40CAF76
S31500002C20D6F82434012B4ED8022386F81C043371BF
S31500002C305DE62846FFF7DAFA00283FF4F9AE4CE6DF
S31500002C403160E8E64F584946327A012A7FF461AF8F
S31500002C50AB6828681B69984700287FF43EAE30723F
S31500002C60F060306057E7002898D02FE7256F002DD9
S31500002C707FF4EDAED6F83C24002A00F00781D6F8A2
S31500002C803834079305AB069306A89047D6F8282450
S31500002C90059BD6F82004002A3FF41FAE02EB420241
S31500002CA0014604E0AA4201F10C013FF416AE50F8C9
S31500002CB02570BB4205F10305F4D10A7A002A7FF498
S31500002CC00CAE2367C3E67C4B0FCB06F1110A06AFA9
S31500002CD087E80F0041464FF4007250462EF0B4FCD0
S31500002CE0AB68286842465146D3F804804B46C04735
S31500002CF050B1D6F82434012B40F2BE8001220223C3
S31500002D0086F81C2433719CE606F20F2B0290584677
S31500002D1014F0A4FB8046584614F0A0FB1FFA88F274
S31500002D204AF655218A42E4D181B29142E1D1029B11
S31500002D3086F810900294C6F8283498464FF00C0B8B
S31500002D401C4657F82820B3185B7C13F07F0330D05D
S31500002D5008F10108B8F1040FF3D12346032B029CB6
S31500002D60C6F82834CAD1D6F820240294536AC6F885
S31500002D70183200235362D6F820249362D6F82874BA
S31500002D80D6F8188206F507794FF0010A4FF400725B
S31500002D90002148462EF058FCAB682868D3F804B0EA
S31500002DA0424649460123D847E8B1029CC6F8287432
S31500002DB09FE7CDE90039514623463046FFF706FD29
S31500002DC0002873D1B8F1030FC7D0022C09D8D6F862
S31500002DD020340BFB04335A68D6F830349B1AC6F8F5
S31500002DE030340134B4E706F21A431846039314F05C
S31500002DF035FB039B8346184614F030FB1FFA8BF312
S31500002E004AF655218B4282B2CFD19A42CDD196F85D
S31500002E10DA3386F814A2002BB8D149464FF4DF7294
S31500002E20CDE9008A3B463046FFF7D0FC84464FF09A
S31500002E300C0E4FF4E77249463046BCF1000FB4D190
S31500002E40D6F82034D6F830440EFB073301375B68DA
S31500002E50E31AC6F830343B46CDE900CCFFF7B6FCA2
S31500002E60034606F2F230002B9FD114F0FDFAD6F895
S31500002E70183200EB030889E7D6F82834012B3FF611
S31500002E803DAF022296F81C343271D7E5D6F82814E5
S31500002E90A9421A4603F10C033FF41FAD13F8040CC4
S31500002EA001350028F4D1136805930AE72346C6F8CE
S31500002EB02834029C1DE700BF3834030020B14FF0D0
S31500002EC002230360002070470120704780B17AB169
S31500002ED003686BB110B5154CC068A0420AD1013920
S31500002EE0072909D8DFE801F00A1D08081A08160E96
S31500002EF001207047072010BD062010BDDB68136057
S31500002F00002010BD1168184610F058FA002818BFA6
S31500002F10202010BD01231370002010BD002010607A
S31500002F2010BD4FF400731360002010BD4F4C4D428E
S31500002F3088B110B50446006878B1094BE2689A4238
S31500002F4001D0072010BD0FF03DFB236903B1984760
S31500002F500020E06010BD01207047012010BD00BFB9
S31500002F604F4C4D42F0B1E9B1F8B5144606460F4A4A
S31500002F70C068904214D1E718A74288BF0D4602D810
S31500002F8012E0A74210D92A462146306810F0CEF941
S31500002F90013405F500750028F3D049F64340F8BD25
S31500002FA00720F8BD012070470020F8BD4F4C4D4268
S31500002FB0E8B1E1B1F8B5144606460F4AC06890423A
S31500002FC013D1E718A74288BF0D4602D811E0A742E1
S31500002FD00FD92A462146306810F032FA013405F539
S31500002FE000750028F3D01820F8BD0720F8BD012091
S31500002FF070470020F8BD00BF4F4C4D42E8B1E1B12B
S3150000300038B54B68BBB15A68AAB1996899B1D96805
S3150000301089B10D4DC168A942044613D002609A6871
S315000030204260DA680261D3E901011A680FF048FECE
S3150000303028B9E56038BD012038BD012070474CF243
S31500003040513038BD0E2038BD4F4C4D4210B472B6CB
S31500003050184A194B19481168194C1A4A1960046024
S315000030601368194943F0010313600B68174AA2FB62
S3150000307003235B09013BB3F1807F0AD24FF0E022C4
S3150000308013485361F0240021072380F823409161FF
S3150000309013610F4BF0220021DA7783F8222083F8A0
S315000030A02310EFF3148C2CF0040C8CF314885DF8C9
S315000030B0044B704700000000CC05FE1F0C05FE1FE8
S315000030C0B4460720001000E0EC07FE1F1F85EB51F9
S315000030D000ED00E0114B124C124813490022226009
S315000030E09A809A821A801A829860D9609861D9610A
S315000030F0EFF3088282F309880C48B0F8202192B2D7
S31500003100012142F48052A0F820219980998262B66A
S31500003110074B4FF080525A60FEE700BF000D00409B
S315000031204405FE1FB0160720AF1E072000600040B2
S3150000313000ED00E070B42349234D244C244A254E6B
S315000031404AF2025C1FE08B89C3F3C0331360136835
S31500003150012B0FD1B1F8FE339BB23360A1F8FEC349
S315000031608B8960F3CF338B81336843F425439BB25D
S31500003170A1F8FE33BFF34F8F30BFBFF36F8F62B638
S315000031801368012B0BD072B62B68236020680028C9
S31500003190D9D0114B4FF000625A6070BC704772B6BE
S315000031A0B1F8FE339BB23360A1F8FEC38B8943F4BA
S315000031B000438B81336843F425439BB2A1F8FE3369
S315000031C062B6E0E700E001403805FE1F3405FE1F49
S315000031D0F004FE1FEC04FE1F00ED00E02548016828
S315000031E0002945D0EFF30983A3F1200383F309886F
S315000031F003F1200323E9F00F1EF0100F07D1A3F10E
S31500003200400383F3098803F1400323ED108A43F852
S3150000321004ED8B60184C236813B18B610023236087
S31500003220164E72B633680BB1036001E0FFF782FFFA
S31500003230366862B6706801307060B0692060104808
S315000032404FF000014161F16881613169C161B36884
S3150000325053F804EB1EF0100F01D1B3EC108AB3E85B
S31500003260F00F83F309884FF0010141617047FEE7D3
S31500003270014CD5E73405FE1F7806FE1F3805FE1FF4
S31500003280000D004000F028B8026922F00702A2F102
S3150000329044026FF00203136002F104024FF00003D0
S315000032A0136053609360D36013615361C368936185
S315000032B04FF00003D361136253629362D3621363C8
S315000032C04FF0FF33536391634FF08073D363A2F1E2
S315000032D004028260704700BF10B5244924480A687A
S315000032E0036801320A60DBB9224C2168224A13685E
S315000032F0186800B3214B01221A6001F0B5FD23685E
S3150000330023BB1F4B1B6853B11E4A1268934206D05B
S315000033101D4B1B681BB91D4B4FF080525A6010BDE8
S31500003320013B144C0360A3B9134A012113682160C1
S3150000333018680028DED116480068043383421360FB
S315000033400CD00E4B1B6831B1002BD6D101F04EFCD0
S31500003350D7E72168CAE7002BD3D0CEE70D48074B45
S3150000336000681B6810600029EED1F4E77406FE1FA2
S315000033707806FE1FE005FE1FD805FE1FDC05FE1FB2
S315000033803805FE1F3405FE1F4405FE1F00ED00E054
S315000033906806FE1F6C06FE1F38B5EFF3108372B683
S315000033A01C4A846E944202D083F3108838BDD0F84C
S315000033B0B0208A42F8D1C26E002AF5D016491468A8
S315000033C08C42F1D151690029EED000218166146941
S315000033D0E4B1516901395161B1B1D0E91C15A0427E
S315000033E04D67296710D0026B072ADDD10B49C0F85B
S315000033F084200A6801320A6083F3108801F0AAFA71
S31500003400EFF3108372B6CFE71161ECE70121D160CB
S31500003410E9E700BF993300004E4456444405FE1FB9
S3150000342038B504460D46242200212EF00DF96560BC
S31500003430EFF3108172B60B4B0B4A236013680B48EF
S3150000344043B9A4610460E4610133136081F3108819
S31500003450002038BD0068C569C461AC61C4E90605D1
S31500003460F2E700BF4E4456440405FE1F0805FE1F42
S3150000347070B50446EFF3108C72B68068256A20EAB0
S3150000348005051D60256A02F002060DB120EA050059
S31500003490002E39D000EA010631EA000036D0049841
S315000034A0002844D029480568002D40D100293ED087
S315000034B0274D2E68C6E91F32D6F8B030B167013302
S315000034C0C6F8B030234BF466B3666369002B32D17D
S315000034D02661C6E91C6663690133636107220368D6
S315000034E0326301220133B263049AF26403608CF3FF
S315000034F01088304601F0A4FAEFF3108C72B6D6F8B5
S3150000350084008CF3108870BD00EA0106002EC6D038
S3150000351012F001000CD063690BB1206990B1A56867
S3150000352025EA01050020A5608CF3108870BD0720F0
S315000035308CF3108870BD236933675A6F72671667FC
S315000035405E67C8E70D432562F2E700BF4405FE1F2C
S315000035503405FE1F993300002DE9F84FEFF3108C68
S3150000356072B6970711D543693BB9836819408160E4
S315000035708CF310880020BDE8F88F0369002BF4D186
S31500003580036A63EA01010162F2E78268036A0A4399
S31500003590826013B123EA01010162D0E90453002DD0
S315000035A000F09780012B00F09A80624E0021884639
S315000035B00161316801313160AB464446C2468CF345
S315000035C01088EFF3108C72B6C168002976D00023FC
S315000035D0C36083681A434369DE46DEF88010DEF86E
S315000035E07880DEF870508F0702EA080941D538EA7C
S315000035F002073ED0DEF83010072915D029468E4541
S3150000360050D0DEF87480C1F87480DE45C8F87010BA
S3150000361056D0416901394161002C4AD00021CAF8CF
S3150000362070E0CEF87010F246013BC8D1026AC0F8CD
S3150000363010B0002A47D18CF310886CB12046246F55
S31500003640EFF3108272B633680133336082F3108869
S3150000365001F080F9002CF1D1EFF3108272B63368D5
S31500003660013B336082F3108801F056F90020BDE873
S31500003670F88FDEF83070072FC0D1B9F1000FD3D024
S31500003680DEF87C70C9073A6003D5816821EA080133
S3150000369081600021CEF86810CEF88410DEF8701034
S315000036A08E45AED1416901394FF0000B4161002CC6
S315000036B0B4D1CEF87040F2467446B5E7AE468CE714
S315000036C0DEF870B0A5E70362836823EA020383602D
S315000036D0B1E7002B3FF44CAF0123C36048E7D5F8B0
S315000036E08010AB6F8E0702EA030403D533EA0206A5
S315000036F07FF43EAF002C3FF43BAFEC6F2260CA076D
S3150000370003D5826822EA030383600A490A68002314
S315000037100132C0E904330A60AB66C5F884308CF325
S315000037201088284601F016F9EFF3108372B683F37A
S3150000373010881FE74405FE1F38B500F0ADFF01F005
S315000037401DFC0D480D490E4A0E4C0F4D002303601B
S315000037500B6013600D480E490E4A236003600B6030
S3150000376013600D4C0D480E490E4A236003600B6032
S3150000377013602B6038BD00BF2005FE1F1C05FE1F11
S315000037801805FE1F0805FE1F2405FE1F0405FE1F63
S31500003790F804FE1FF404FE1F0005FE1FFC04FE1FB6
S315000037A01405FE1F1005FE1F10B50E4C236813F1FD
S315000037B00F3F0AD04FF0F0332360FFF747FCFFF7C7
S315000037C0BBFF094A136801331360084A4FF0F03310
S315000037D0106823601BF026FA00232360BDE8104022
S315000037E0FFF778BCC001FE1F4405FE1F0C05FE1F37
S315000037F0704700BF704700BF10B5EFF3108372B675
S315000038001A4A846E944202D083F3108810BDD0F811
S31500003810B0208A42F8D1C26E002AF5D01449146845
S315000038208C42F1D1D1690029EED000218166D1699F
S315000038300139D161C1B1D0E91C144C672167946983
S31500003840844211D0026B0D2ADED10A490A681D2472
S315000038500132C0F884400A6083F3108801F07AF8D8
S31500003860EFF3108372B6CFE79161EBE7F93700000B
S315000038704554554D4405FE1F70B50446EFF31083BD
S3150000388072B60D4ED0F8A4003268013232600125BE
S3150000389058B1856083F3108800F0C2F9EFF3108306
S315000038A072B6D4F8A4000028F2D13268013A326028
S315000038B083F3108870BD00BF4405FE1F70B5044633
S315000038C00E461546002134222DF0BEFE66602561A7
S315000038D0EFF3108172B60C4B23600C4A0C4B0D486B
S315000038E0186013680C4843B92462046064620133AB
S315000038F0136081F31088002070BD0068456A446239
S315000039002C62C4E90805F2E74554554D1005FE1F23
S315000039104005FE1F793800001405FE1F2DE9F04111
S31500003920EFF3108272B62749002303600B68013B50
S315000039300B60002B3BD124490B60244E846933680D
S31500003940C56901333360C36800218161C16143B138
S315000039500123836082F3108800F062F9EFF310828E
S3150000396072B682F31088ADB14FF000080127013D11
S31500003970EFF3108272B63368C4F868800133C4F876
S31500003980847020463360246F82F3108800F0E2FFD3
S31500003990002DECD1EFF3108272B63368013B336031
S315000039A082F3108800F0B8FF0020BDE8F081D0E96E
S315000039B00831054C59620B622168814208BF2360B9
S315000039C0BBE700BF1005FE1F1405FE1F4405FE1FC2
S315000039D070B5EFF3108C72B63B4A83681468E3B98E
S315000039E00122C0E90224A4B10269012A03D1E26AD4
S315000039F0426120228262D4F8A420002A44D0116BAE
S31500003A001063C862C0E90B21D4F8A0200132C4F8C3
S31500003A10A0208CF31088184670BDC268A2422CD034
S31500003A2031B32A4D2B681BBBD4F8B030E0660133A6
S31500003A30C4F8B030264BA366C36953BB8461C4E99E
S31500003A401C44C3690133C3612B68E16401332B60F5
S31500003A500D2323630123A3638CF310880369012BD1
S31500003A601ED0204600F0ECFFD4F88430184670BD16
S31500003A708CF310881D23184670BD013383608CF3C8
S31500003A8010880023184670BDC4F8A400C0E90B00D6
S31500003A90BAE7836923675E6F666734675C67D0E75A
S31500003AA0E16A836A8B4288BF8162D2F89C30994270
S31500003AB03CBFC2F89C10E16AD36A8B42D1D910464A
S31500003AC000F054F8CDE700BF3405FE1F4405FE1F85
S31500003AD0F9370000F8B5EFF3108C72B6C569012D01
S31500003AE026D98369022D1A6F1DD01F4F3C680134F9
S31500003AF019463C6005E0C569226F214623468A4285
S31500003B001AD0D66ADC6AA64238BF13468CF31088F0
S31500003B10EFF3108C72B684698C42ECD1C669AE4262
S31500003B2020D03546E8E7DB6AD16A994238BF826120
S31500003B308CF310880020F8BD3968934201F1FF31FB
S31500003B40396009D0D3E91C4161670C67516FC3E93D
S31500003B501C210B67536783618CF3108800F0DCFE31
S31500003B600020F8BD126FCAE74405FE1F2DE9F0419B
S31500003B7004460D46EFF3108272B6036B53B1D0F8CC
S31500003B809810C562A94228BF2946C16382F31088EE
S31500003B90BDE8F0811F49C3640B681F4ED0F82C8026
S31500003BA0376802330B600E2303630123836382F3BA
S31500003BB0108800F045FFEFF3108272B6D4F8983003
S31500003BC0E562AB4228BF2B46E36382F310882046AA
S31500003BD000F0C0FEEFF3108272B633689C4207D045
S31500003BE0216B29B9D96AE36A8B4205D8BC4208D051
S31500003BF082F31088BDE8F081E06B8342F8D98142F8
S31500003C00F6D3A84538BF0549346038BF41F823408C
S31500003C10EEE700BF4405FE1F3805FE1F4805FE1FE0
S31500003C202DE9F8430446EFF3108372B685688DB12B
S31500003C307849E26809688A42184602D0764E3168A9
S31500003C4041B1013DA5605DB183F31088002528468A
S31500003C50BDE8F88383F310881E252846BDE8F8835F
S31500003C60002A43D0D2F8A0100139C2F8A0100029CA
S31500003C703FD1C2F8A450A16900295FD02169D2F8CA
S31500003C809480654E012900F08A80E369012B49D9A9
S31500003C902369012B38D0A769002F65D04FF00009A2
S31500003CA0D7F8A030002B57D1C7F8A440C4E90B447D
S31500003CB00133C7F8A030E369E760013B0122E36105
S31500003CC0A260002B42D1A361336801333360002325
S31500003CD0BB66C7F8843080F310882369012B7FD038
S31500003CE0384600F037FE2846BDE8F88383F310888F
S31500003CF0B3E7D4E90B160E63F162D2F8A460A642CC
S31500003D0008BFC2F8A410B6E733680133336080F306
S31500003D1010882046FFF7DEFEEFF3108072B6336898
S31500003D20013B3360A769FFB12369012BB6D1FB6A5A
S31500003D3063612023D4F80C90A362B1E721690029BE
S31500003D409DD1E16083F310880D4686E73B6FA36142
S31500003D507A6F5A671367B7E7D7F8A420116B146315
S31500003D60CC62C4E90B21A3E733680133336080F3E7
S31500003D7010882023E068A362C36A434502D0414607
S31500003D80FFF7F4FEEFF3108272B63368013B33603F
S31500003D900023E36082F3108800F0BEFD5DE7316822
S31500003DA00131316083F31088D2F8A41020270B4626
S31500003DB04BB11869012803D1986A874228BF074684
S31500003DC0DB6A9942F4D1EFF3108072B63368C2F819
S31500003DD09C70B84503F1FF3328BFB846336054E7FB
S31500003DE0E3694BB9D9F82C3043453FF479AF4146E6
S31500003DF04846FFF7BBFE73E72046FFF76BFEEFF37F
S31500003E00108272B6A3690BB1DB6AA36282F31088D3
S31500003E10E8E700BF3405FE1F4405FE1F10B5EFF3AB
S31500003E20108372B61D4A846E944202D083F31088C2
S31500003E3010BDD0F8B0208A42F8D1C26E002AF5D063
S31500003E40174914688C42F1D1D16A0029EED00021BD
S31500003E508166D16A0139D162E9B1D0E91C144C6797
S31500003E602167946A844216D0016B0529DED10D497B
S31500003E7014690A68002C02F1010214BF0B240A24FB
S31500003E80C0F884400A6083F3108800F063FDEFF306
S31500003E90108372B6CAE79162E6E700BF1D3E0000D6
S31500003EA0554555514405FE1FF8B516460F463822AE
S31500003EB0002104461D462DF0C7FBB200069BB3FB4E
S31500003EC0F2F303FB0252C4E908556760E261A6609B
S31500003ED0A5616361E360EFF3108172B60A4B0B4A8A
S31500003EE0236013680A4843B924630460646301339A
S31500003EF0136081F310880020F8BD0068456B4463A9
S31500003F002C63C4E90C05F2E7554555511805FE1F0B
S31500003F101C05FE1FF8B5EFF3108272B60369002B7D
S31500003F2030D08369C168C56A0027C0E90471C0E959
S31500003F3008333DB3154E846A33680133C0E90A7706
S31500003F40336082F31088013D84B1EFF3108272B6BC
S31500003F503368A7660133C4F884703360246F82F334
S31500003F601088606F00F0F6FC002DECD1EFF31082A4
S31500003F7072B63368013B336082F3108800F0CCFCE4
S31500003F800020F8BD82F310880020F8BD4405FE1F0E
S31500003F90F8B50346EFF3108E72B61C69C06A14B307
S31500003FA0002849D19E681D6A012E55F8044B0C6005
S31500003FB00BD9013E8C463246294651F8044B4CF843
S31500003FC0044F013AF9D105EB8605DA69AA425A6926
S31500003FD008BF9D691D6201325A611A69013A1A6168
S31500003FE08EF31088F8BD002A77D0584D2E68002E23
S31500003FF073D1574C2468C4E91F16D4F8B010E36691
S315000040000131C4F8B0105349A166002869D19C62F9
S31500004010C4E91C440130D862052323630123A3634A
S315000040202B68E26401332B608EF31088204600F083
S3150000403007FDD4F88400F8BD9F6AD7F88020012ACE
S3150000404056D01E6A9A6856F8044B0C60012A0BD9A2
S3150000405002F1FF3C6246344654F8045B41F8045FC3
S31500004060013AF9D106EB8C06384DDA69596AB24243
S315000040702A6808BF9E691E6201322A602A68FC6FA0
S315000040809E68013A2A600F46226847F8042B012EE3
S315000040900BD906F1FF3C0434624654F8046B41F830
S315000040A0046F013AF9D107EB8C07DA69BA4208BF07
S315000040B09F699A6A5F6201383FD19862D8622B681D
S315000040C0002401339466C2F884402B608EF3108876
S315000040D0104600F03FFC2046F8BD8EF310880A20FB
S315000040E0F8BD996A21674E6F666734674C6791E73A
S315000040F0FC6F9A6825680D60012A07D90434013AD5
S3150000410054F8045B41F8045F013AF9D101381AD03A
S315000041103A6F9A62796F51670A670C4AD8621368D8
S3150000412000240133BC66C7F8844013608EF3108800
S31500004130384600F00FFC2046F8BD116F9962546FA7
S315000041404C672167BAE79862E7E700BF4405FE1FA0
S315000041503405FE1F1D3E000070B50446EFF3108CBB
S3150000416072B66369C06A13B300284CD1013B636120
S315000041702369626A01332361A3680D681646012B21
S3150000418046F8045B0BD903F1FF3E0431734651F840
S31500004190045B42F8045F013BF9D106EB8E06E36946
S315000041A0B34208BFA66966628CF3108870BD002A08
S315000041B050D02D4B1E68002E4CD12C4D2D68C5E9D4
S315000041C01F16D5F8B010EC660131C5F8B0102849B5
S315000041D0A966002844D0A16A29674E6F6E673567C5
S315000041E04D6701300521E06229630121A963196841
S315000041F0EA64013119608CF31088284600F020FC2F
S31500004200D5F8840070BD0138A56A27D02B6FA3624C
S315000042106A6F5A6713670023E062AB66A368EA6FAA
S3150000422008681060012B07D90431013B51F8044B93
S3150000423042F8044F013BF9D10B4A136800240133BD
S31500004240C5F8844013608CF31088284600F082FB82
S31500004250204670BD8CF310880B2070BDA062DAE793
S31500004260A562C5E91C55BCE74405FE1F3405FE1FC3
S315000042701D3E000010B5EFF3108C72B6046944B908
S3150000428082688A421FD2013282608CF310882046EF
S3150000429010BD631EC26814D0116FC160546F4C67A5
S315000042A021670B4903610B68002401339466C2F849
S315000042B084400B608CF31088104600F04BFB2046C0
S315000042C010BDC360EDE78CF310882124204610BD95
S315000042D04405FE1F10B5EFF3108372B61A4A846EBA
S315000042E0944202D083F3108810BDD0F8B0208A42E1
S315000042F0F8D1C26E002AF5D0144914688C42F1D167
S3150000430011690029EED00021816611690139116118
S31500004310C1B1D0E91C144C672167D468844211D01E
S31500004320026B062ADED10A490A680D240132C0F85A
S3150000433084400A6083F3108800F00CFBEFF31083CF
S3150000434072B6CFE7D160EBE7D5420000414D455349
S315000043504405FE1F002330B4C0E901120360C360A8
S31500004360036143618361EFF3108172B60B4B0C4A14
S31500004370036013680B4C4BB94061206080610133C8
S31500004380136081F31088002030BC70472468A5694B
S31500004390A0616861C0E90545F1E700BF414D45539D
S315000043A02005FE1F2405FE1FEFF3108272B68368F8
S315000043B02BB1013B836082F31088002070470029EF
S315000043C029D070B51A4B1C68002C2CD1194C2468C6
S315000043D0D4F8B050E0660135C4F8B050164DA56665
S315000043E00569E5B1C56825676E6F666734676C67F2
S315000043F0056901350561062020630120A063186860
S31500004400E1640130186082F31088204600F018FB42
S31500004410D4F8840070BD82F310880D207047C46004
S31500004420C4E91C44E4E782F310880D2070BD00BF88
S315000044304405FE1F3405FE1FD542000038B5EFF3D4
S31500004440108172B6036933B983680133836081F3DF
S315000044501088002038BD013BC26814D0146FC460B8
S31500004460556F65672C67094C036123680025013386
S315000044709566C2F88450236081F31088104600F0D8
S3150000448069FA002038BDC360EDE700BF4405FE1F92
S315000044902DE9F84F0A9D0B9E0C9FDDF838B00446B7
S315000044A08A469146EF213246284698462DF0CCF8AA
S315000044B0B422002120462DF0C7F82023C4F89C30F2
S315000044C00D9B66619F4206F1FF36364BE5604FF065
S315000044D003023544C4E91198C4E906BBC4E915349E
S315000044E03149C4F828A02561E762C4F8947004BF76
S315000044F0E763C4F8987022632046FEF7C5FEEFF323
S31500004500108072B6294B2A4A236013686BBB29496F
S31500004510C4E922440C6001331360274A136801334F
S3150000452013600F9B012B2BD1EFF30582234B1B68E6
S315000045301343B3F1F03F07D280F31088204600F012
S3150000454009FA0020BDE8F88F1D4B1D683DB3EB6AE4
S31500004550EE6BEB6380F31088204600F0FBF9002D2C
S31500004560EFD0EE630020BDE8F88F12490968D1F854
S315000045708C50C1F88C40C5F88840C4E92215CAE7BA
S3150000458080F31088EFF3108172B61368013B136055
S3150000459081F3108800F0C0F90020BDE8F88F2E46A0
S315000045A0D8E700BF594C0000FD470000445248546C
S315000045B02C05FE1F3005FE1F4405FE1FC001FE1F11
S315000045C03805FE1FEFF3108272B6036B013B012B19
S315000045D003D982F31088112070470F490023036026
S315000045E00B68013B0B602BB90C490B6082F31088FA
S315000045F00020704710B4D0E92231084CC3F88C1063
S31500004600C1F888302168814208BF236082F3108890
S3150000461000205DF8044B70472C05FE1F3005FE1F79
S31500004620EFF3108372B6024A106883F3108870475E
S315000046303405FE1F2DE9F041DDF82880DDE906C7C7
S31500004640DDE90865EFF3108E72B609B1846A0C6075
S315000046500AB1016B11600BB142681A60BCF1000F20
S3150000466003D0D0F89430CCF8003017B1D0F8983099
S315000046703B600EB18369336015B1D0F888302B608A
S31500004680B8F1000F02D0036FC8F800308EF310881F
S315000046900020BDE8F08100BF0E490F4B0F48104ABD
S315000046A010B500240C6020211960046014602146B6
S315000046B080220C482CF0C8FF0B490C4A0C600C49B0
S315000046C013680C600B480C49046043F0C573136013
S315000046D00C6010BD3805FE1F3C05FE1F3405FE1F8D
S315000046E0C805FE1F4805FE1F3005FE1F2805FE1FD4
S315000046F04405FE1F2C05FE1F4005FE1F08B5D0F819
S3150000470094308B4218BF0021EFF3108C72B6D0F8AC
S3150000471094308B4226D3D0F898301360D0F89C3072
S31500004720124AC0F898108B4228BF0B461268C36322
S31500004730C36A934203D800208CF3108808BD8A42CE
S31500004740F9D20B4B19688142F5D10A4951F822205A
S315000047501A608CF3108800F0DFF8EFF3108C72B655
S315000047600020E9E718208CF3108808BD3C05FE1FE1
S315000047703805FE1F4805FE1F38B50346EFF31081C6
S3150000478072B6026B032A09D0426B012A05BF0022CA
S3150000479042631220192081F3108838BDEFF3058497
S315000047A0134A12682243B2F1F03F12D3114A146839
S315000047B0CCB1E26AE56BE2630F480268013202603F
S315000047C081F31088184600F0C5F874B1E56300203F
S315000047D038BD094A13680133136081F3108800F06D
S315000047E0B9F8002038BD2546E6E7204638BD00BFAB
S315000047F0C001FE1F3805FE1F4405FE1F10B50E4BF7
S315000048001C68D4E9113098470C4B1B680BB1204645
S315000048109847EFF3108172B6094A01232363A36315
S31500004820136800200133E064136081F3108820468A
S31500004830BDE8104000F004B93405FE1F4005FE1F18
S315000048404405FE1F10B5EFF3108272B6124B1C68BA
S3150000485064B1EFF30583114909680B4306D110B91A
S3150000486082F3108810BD0E4B196819B182F31088B7
S31500004870132010BDC4F884101968E0640131196072
S31500004880042101232163A36382F31088204600F0EC
S31500004890D7F8D4F8840010BD3405FE1FC001FE1FF2
S315000048A04405FE1F10B5EFF3108372B6046B7CB19E
S315000048B0621E012A07D9032C24D001224263002458
S315000048C002E00A687AB1142483F31088204610BDEA
S315000048D0EFF305820D4909680A4315D10C4A0D49C3
S315000048E012688242EDD00322026301228263002213
S315000048F0C2640A6801320A6083F3108800F0A0F8E7
S31500004900204610BD0024DFE70249ECE7C001FE1F88
S315000049103405FE1F4405FE1F0A4B1B688BB90A4A65
S315000049200A4B12681B689A420BD0094B4FF0805213
S315000049305A60EFF3058323B9EFF3108362B683F36E
S31500004940108870474405FE1F3405FE1F3805FE1FFC
S3150000495000ED00E0F8B50446EFF3108572B6436E3D
S31500004960002B3AD04C3000F06DFB2E4AA16B136839
S31500004970013B1360236B31BBB3B92B492B4B1B682F
S3150000498085F31088096899420DD013685BB9284BE6
S315000049904FF080525A60EFF3058323B9EFF310838B
S315000049A062B683F31088F8BD636B8BB9E06A214960
S315000049B0236351F82030B3B1596A0C625C626162BC
S315000049C023621949DAE7013B012BD6D9636B33B170
S315000049D003230021C4E90C31CFE7C364C5E71249BC
S315000049E0A3632363CAE7144E41F820403368134F8C
S315000049F0012181400B4333603B688342C4E908448C
S31500004A00BBD9094938600B684BB1DB6B8342B5D91A
S31500004A100C6085F310881368002BC4D1B7E70C60CF
S31500004A20ACE700BF4405FE1F3805FE1F3405FE1F18
S31500004A3000ED00E04805FE1FC805FE1F3C05FE1FF1
S31500004A40F8B5374B04461D68EFF3108672B68542FB
S31500004A503AD0344A1368013B1360A36B012B14D080
S31500004A60314B86F310881B68AB420DD013685BB9D7
S31500004A702E4B4FF080525A60EFF3058323B9EFF3C4
S31500004A80108362B683F31088F8BD216AE06A4FF09E
S31500004A90000C8C42C4F838C025D0636A244F4B62A0
S31500004AA0196257F82030A3421AD01F4B1968A14249
S31500004AB0D7D12049096857F82110196086F3108864
S31500004AC01368002BE0D1D3E7EB6C013B033303D82B
S31500004AD005F14C0000F08CFA174BE2691A60B8E752
S31500004AE047F82010E1E71549114F834047F820C0E9
S31500004AF0086820EA03030B6033B193FAA3F3B3FA11
S31500004B0083F30C490B60D0E70A4920200860064968
S31500004B100B6086F310881368002BB5D1A8E700BF99
S31500004B203405FE1F4405FE1F3805FE1F00ED00E09C
S31500004B304805FE1F3C05FE1F7806FE1FC805FE1F22
S31500004B4070B50446EFF3108672B64C3000F07AFA70
S31500004B50236B022B2FD0012B2DD0224D2A68013238
S31500004B602A6002226BB30123A363D4F8B010A36EAC
S31500004B70226386F310880BB120469847EFF3108323
S31500004B8072B60022A26383F31088EFF3108372B625
S31500004B9083F31088144B1B680BB120469847EFF33C
S31500004BA0108272B62B68013B2B6082F31088FFF7E8
S31500004BB0B3FE002070BD86F31088FFF7ADFE00201F
S31500004BC070BD22630122A2632A68E36401322A606F
S31500004BD086F310882046FFF733FFEFF3108372B693
S31500004BE0D6E700BF4405FE1F4005FE1F144B1B6899
S31500004BF0EFF3108272B613490020086093B1196B67
S31500004C0081B910B4D3E907100F4C9961984221601D
S31500004C1003D0D96ADB6B994207D082F310885DF81E
S31500004C20044B704782F310887047084B084C43F8D2
S31500004C3021002068074953F820300B60EDE700BFDC
S31500004C403405FE1FE005FE1F7806FE1F4805FE1F01
S31500004C503C05FE1F3805FE1FEFF3108C72B6026B83
S31500004C60042A07D0826ED0F8B0108CF3108802B1F7
S31500004C7010477047034A1368013313608CF310889A
S31500004C80FFF768BE4405FE1FEFF3108372B6024AB3
S31500004C90106883F3108870477406FE1F38B5EFF36B
S31500004CA0108572B6046A1CB1172085F3108838BDCA
S31500004CB08368002BF8D0083000F09AF9204685F377
S31500004CC0108838BD10B4EFF3108372B6046A2CB1A5
S31500004CD083F3108800205DF8044B7047C0E9021288
S31500004CE083F3108800205DF8044B7047F8B504463E
S31500004CF00F46164600212C221D462CF0A5FC069BCD
S31500004D00A360079B6760C4E903366561EFF310850E
S31500004D1072B6134B134A2360136863B901331360E9
S31500004D20089B1149012BC4E909440C600FD085F397
S31500004D3010880020F8BD0C49013309681360089BF0
S31500004D40886A8C62012B4462C4E90910EFD104F130
S31500004D50080000F04DF985F310880020F8BD00BF6B
S31500004D604D495441D005FE1FD405FE1FEFF3108CAC
S31500004D7072B6036A002B33D030B4234A12689A42C3
S31500004D8000F1080111D8214C24689C420DD9204D10
S31500004D902D689D4231D85A1B921001328468202C0E
S31500004DA00BD9203C2244826008E01A4A12688A42E3
S31500004DB002D08268202A1DD8C26882608269914228
S31500004DC012D0C469546122611C688C4204BF93618D
S31500004DD01A60002303628CF31088002030BC7047F1
S31500004DE08CF31088002070471A688A42F1D100229D
S31500004DF01A60EEE7203A8260E0E7641BA4109A1A74
S31500004E00013404EBA202C9E76C06FE1F6806FE1F0A
S31500004E10D805FE1FE405FE1F38B50446EFF31085DE
S31500004E2072B6036A13B1083000F00CF90C4A00237D
S31500004E3023601368013B13602BB90A4A136085F39C
S31500004E401088002038BDD4E9093206499A625362B7
S31500004E500A68A24208BF0B6085F31088002038BD9F
S31500004E60D005FE1FD405FE1F2DE9F04F83B0EFF3EA
S31500004E70108572B6DFF8F4A0DAF80040002C5ED197
S31500004E80DFF8EC80D8F80030002B58D00123DFF88B
S31500004E90E490DFF8E4B0CAF80030324B1A681368C1
S31500004EA000930BB1C3F818D02E4914600B68D9F8DB
S31500004EB00020043393420B604FD0C8F8004085F3BE
S31500004EC01088EFF3108572B6009F002F31D001AE27
S31500004ED012E0203A3A60BE613F610197CBF800705C
S31500004EE085F31088EFF3108572B6019ACBF800406F
S31500004EF097422DD0009FE7B13A690194974223D09B
S31500004F007869506100920261C2F818D03A68202A86
S31500004F10DFD87B683B60D7E90220BBB1BE613F6149
S31500004F200197CBF8007085F31088002ADAD09047F5
S31500004F30D8E7D8F80030002BAFD1CAF8003085F397
S31500004F40108803B0BDE8F08F0094DFE7BB61E8E7A7
S31500004F50BC61384600F04CF8CCE7034B1B680B608D
S31500004F60ABE700BFD805FE1F6C06FE1F7006FE1FCE
S31500004F70DC05FE1F6806FE1FE405FE1F1048114AE9
S31500004F80114B124910B50024046014601048114AF0
S31500004F900C60146021468022046018462CF054FBF5
S31500004FA00D490E4A03460E480B60136080330D49C7
S31500004FB00D4A03600D4B0C6014601C6010BD00BFF1
S31500004FC07406FE1F7806FE1FE805FE1FE005FE1F9D
S31500004FD0E405FE1FDC05FE1F6C06FE1FD805FE1F3E
S31500004FE06806FE1F7006FE1FD405FE1FD005FE1FB5
S31500004FF00268531ED91C01D8816901B17047202A65
S315000050000D4A0E491268096894BF9B007C2313441D
S31500005010994208D91A685AB1516908615061C0E9C4
S3150000502004218361EAE7064A12685B1A1344F1E732
S31500005030C0E904001860F4E7D805FE1F6806FE1FE5
S315000050406C06FE1F836963B1026990420AD041690A
S3150000505051610A611968814204BF93611A60002395
S31500005060836170471A688242F9D100221A60F6E716
S3150000507008B1242A01D00620704770B50E460546B1
S31500005080EFF3108272B61C490B6801330B6082F392
S3150000509010881A4A1A4B12681C684AB1A04207D0F7
S315000050A0002301E0A54203D001339342A469F9D15C
S315000050B0EFF3108272B60B68013B0B6082F3108827
S315000050C0FFF72AFCA54212D0EFF305830D4A1168BB
S315000050D00B4306D0EFF3058113680B43B3F1F03FA2
S315000050E007D331462846BDE87040FEF799B9062039
S315000050F070BD132070BD00BF4405FE1F0405FE1FD2
S315000051000805FE1FC001FE1F70B4039C18B10D4DAB
S315000051100668AE4202D0062070BC704763B12CB15F
S31500005120EFF30585084E3668354307D1032A07D8BD
S31500005130039470BCFEF79CB90320EDE70420EBE76F
S315000051400820E9E74E445644C001FE1F78B110B46A
S315000051500A4B04689C4203D006205DF8044B704756
S3150000516032F0020305D15DF8044BFEF7F5B90620CF
S31500005170704708205DF8044B704700BF4E44564404
S3150000518008B1342B01D01C2070472DE9F0410F46A1
S3150000519016468046EFF3108172B61F4A1368013334
S315000051A0136081F310881D4B1C681D4B1D684DB1A3
S315000051B0A04207D0002301E0A04503D00133AB4253
S315000051C0246AF9D1EFF3108172B61368013B1360BC
S315000051D081F31088FFF7A0FBA04503D0012E04D968
S315000051E01F2000E01C20BDE8F081EFF305820D4B87
S315000051F019680A4306D0EFF305821B681343B3F11F
S31500005200F03F06D3324639464046BDE8F041FEF748
S3150000521055BB1320E7E700BF4405FE1F1405FE1F1C
S315000052201005FE1FC001FE1F18B1084A036893420D
S3150000523001D01C207047EFF30583054A126813431B
S3150000524001D013207047FEF769BB00BF4554554D8A
S31500005250C001FE1F18B1124B02689A4201D01C20F1
S31500005260704710B481B90F4BEFF305821C682243D7
S3150000527006D0EFF305821B681343B3F1F03F0DD35D
S315000052805DF8044BFEF7A4BBEFF30582054B1C68E3
S315000052902243E9D004205DF8044B70471320FAE757
S315000052A04554554DC001FE1F18B10B4B02689A427A
S315000052B001D01C207047EFF30583084A11680B43A1
S315000052C006D0EFF3058113680B43B3F1F03F01D32A
S315000052D0FEF7A6BC132070474554554DC001FE1F6E
S315000052E02DE9F047DDF820901E46099B08B1382BC2
S315000052F002D00920BDE8F087884617460546EFF339
S31500005300108172B6234B1A6801321A6081F3108835
S31500005310214A1068214A146858B1A54209D04FF0B5
S31500005320000C01E0A54204D00CF1010C8445246B6D
S31500005330F8D1EFF3108172B61A68013A1A6081F358
S315000053401088FFF7E9FAA542D3D00EB37B1E0F2BC8
S3150000535011D8B7EB990F0ED8EFF30582104B1968E9
S315000053600A430BD0EFF305821B681343B3F1F03FFA
S3150000537004D21320BEE70520BDE8F087CDF82090C3
S3150000538033463A4641462846BDE8F047FEF78CBD0F
S315000053900320AFE74405FE1F1805FE1F1C05FE1F70
S315000053A0C001FE1F18B1044A0368934201D00920C8
S315000053B07047FEF7AFBD00BF55455551B0B110B4AB
S315000053C00C4B04689C4203D009205DF8044B7047DF
S315000053D071B12AB1EFF30583074C2468234303D147
S315000053E05DF8044BFEF7D4BD0420EEE709207047B4
S315000053F00320EAE755455551C001FE1FB0B110B470
S315000054000C4B04689C4203D009205DF8044B70479E
S3150000541071B12AB1EFF30583074C2468234303D106
S315000054205DF8044BFEF798BE0420EEE709207047AE
S315000054300320EAE755455551C001FE1F88B110B457
S31500005440094C0368A34203D00C205DF8044B704757
S3150000545019B922205DF8044B70475DF8044BFEF73E
S3150000546009BF0C20704700BF414D455308B11C2BA6
S3150000547001D00C2070472DE9F0410F4616468046B4
S31500005480EFF3108172B61D4A13680133136081F37E
S3150000549010881B4B1C681B4B1D684DB1A04207D0E2
S315000054A0002301E0A04503D00133AB426469F9D182
S315000054B0EFF3108172B61368013B136081F3108815
S315000054C0FFF72AFAA04513D0EFF305820E4B1968B1
S315000054D00A4306D0EFF305821B681343B3F1F03F8E
S315000054E009D3324639464046BDE8F041FEF732BFA1
S315000054F00C20BDE8F0811320FBE700BF4405FE1F2A
S315000055002405FE1F2005FE1FC001FE1F18B1084B13
S3150000551002689A4201D00C20704729B1EFF3058347
S31500005520044A1268134301D1FEF73EBF04207047B8
S31500005530414D4553C001FE1F18B1044A036893420A
S3150000554001D00C207047FEF779BF00BF414D45538F
S315000055502DE9F04F85B09A46119B0193129B039358
S31500005560139B0293DDE90F890E9D149B08B1B42BA2
S3150000557003D00E2005B0BDE8F08F8B4617460646D1
S31500005580EFF3108272B6DFF810C1DCF80030013399
S31500005590CCF8003082F310883C4B1A683C4B08F17B
S315000055A0FF301C682844DAB1A64219D000230097C0
S315000055B0D4F80CE0AE454FF0000106D82769AF429B
S315000055C04FF001018CBF00250021864503F1010340
S315000055D043D82769874240D9009FD4F888400025E0
S315000055E0EFF3108272B6DCF80030013BCCF80030E5
S315000055F082F31088FFF790F9A642BAD0002D38D072
S31500005600002F36D0B8F1C70F31D9B9F11F0F36D8F0
S31500005610019B994535D3029B012B2ED8EFF30582CA
S315000056201C4B19680A4306D0EFF305821B68134327
S31500005630B3F1F03F27D3029B1393039B1293019B75
S315000056403A46CDE91093594653463046CDE90E58B1
S3150000565005B0BDE8F04FFEF71BBF9342D4F8884073
S3150000566003D0A64201D00029A2D0009FB8E70520AA
S3150000567080E7032005B0BDE8F08F10207AE70F2001
S3150000568078E7182076E7132074E700BF2C05FE1F85
S315000056903005FE1FC001FE1F4405FE1FEFF3058205
S315000056A0074909680A4306D118B1064A03689342B6
S315000056B003D00E20704713207047FEF783BF00BF4C
S315000056C0C001FE1F44524854C0B170B40F4D066865
S315000056D0AE4202D00E2070BC7047A2B1EFF3058433
S315000056E00B4D2D682C430BD1D0F894308B4202D24F
S315000056F0182070BC704770BCFFF700B80E207047CA
S31500005700132070BC70470320E5E700BF445248549D
S31500005710C001FE1F18B1044A0368934201D00E204F
S315000057207047FFF729B800BF4452485418B1044ADD
S315000057300368934201D00E207047FFF7B3B800BF4D
S315000057404452485418B1084A0368934201D00E20C7
S315000057507047EFF30583054A1268134301D01320FF
S315000057607047FFF7EDB900BF44524854C001FE1F11
S3150000577018B1044A0368934201D015207047FFF719
S315000057808DBA00BF4D495441B0B130B40D4B0568D8
S315000057909D4202D0152030BC704779B1EFF30584E5
S315000057A0094B1B682343B3F1F03F02D3132030BCEF
S315000057B0704730BCFFF786BA15207047162030BCFC
S315000057C0704700BF4D495441C001FE1F2DE9F04FFF
S315000057D083B01E46DDE90DBADDF830900F9B08B1A7
S315000057E02C2B03D0152003B0BDE8F08F8846174652
S315000057F0EFF3108172B6254B1A6801321A6081F3F5
S315000058001088234A1568234A14685DB1A04209D05E
S315000058104FF0000C01E0A04204D00CF1010CAC45A5
S31500005820646AF8D10190EFF3108172B61A68013AF2
S315000058301A6081F31088FFF76FF80198A042D1D063
