S0120000506F7274614C6573474F2E7372656352
S3150000000010A5FE1F8D5D000001580000895D0000EF
S31500000010895D0000895D0000895D00000000000028
S31500000020000000000000000000000000895D0000E4
S31500000030895D000000000000B986000061870000AD
S315000000406D1000006D3A0000D9300000F52B00005D
S315000000509D2F0000E52D0000DD1900003918000075
S31500000060B1170000F5180000FFFFFFFFFFFFFFFFBD
S31500000070FFFFFFFFFFFFFFFFFFFFFFFFFFFFFFFF8A
S31500000080FFFFFFFFFFFFFFFFFFFFFFFFFFFFFFFF7A
S31500000090FFFFFFFFFFFFFFFFFFFFFFFFFFFFFFFF6A
S315000000A0FFFFFFFFFFFFFFFFFFFFFFFFFFFFFFFF5A
S31500000400FFFFFFFFFFFDFFFFFFFFFFFFFFFFFFFFF8
S31500000410FFFFFFFFFFFFFFFFFFFFFFFFFFFFFFFFE6
S31500000420FFFFFFFFFFFFFFFFFFFFFFFFFFFFFFFFD6
S31500000430FFFFFFFFFFFFFFFFFFFFFFFFFFFFFFFFC6
S31500000440FFFFFFFFFFFFFFFFFFFFFFFFFFFFFFFFB6
S31500000450FFFFFFFFFFFFFFFFFFFFFFFFFFFFFFFFA6
S31500000460FFFFFFFFFFFFFFFFFFFFFFFFFFFFFFFF96
S31500000470FFFFFFFFFFFFFFFFFFFFFFFFFFFFFFFF86
S31500000480FFFFFFFFFFFFFFFFFFFFFFFFFFFFFFFF76
S31500000490FFFFFFFFFFFFFFFFFFFFFFFFFFFFFFFF66
S315000004A0FFFFFFFFFFFFFFFFFFFFFFFFFFFFFFFF56
S315000004B0FFFFFFFFFFFFFFFFFFFFFFFFFFFFFFFF46
S315000004C0FFFFFFFFFFFFFFFFFFFFFFFFFFFFFFFF36
S315000004D0FFFFFFFFFFFFFFFFFFFFFFFFFFFFFFFF26
S315000004E0FFFFFFFFFFFFFFFFFFFFFFFFFFFFFFFF16
S315000004F0FFFFFFFFFFFFFFFFFFFFFFFFFFFFFFFF06
S31500000500B005FE1FFD014400180AFE1F010006008B
S31500000510B405FE1F66001500B805FE1F630015082A
S31500000520BC05FE1F65001510C005FE1F64001518EA
S31500000530C405FE1FBF011600C805FE1FBC0116102C
S31500000540CC05FE1FC0011618D005FE1FBD011620E2
S3150000055020000000200001002F0000002F000100F5
S315000005600C00010011000000300000003000010006
S3150000057024000000240001002400020024000300DF
S3150000058024000400240005001300000017000000EA
S3150000059023000000210000002100010007000000E8
S315000005A0070001000700020007000300070004001F
S315000005B007000500070006000700070012000000FC
S315000005C044000000080000000B000000410000008D
S315000005D0400000004000010004000000430000004D
S315000005E02B0000002B000A002B000B002B000C0038
S315000005F02B000D002B0001002B0002002B00030036
S315000006002B0004002B0005002B0006002B00070022
S315000006102B0008002B0009000600000006000A0057
S3150000062006000B0006000C0006000D0006000E007A
S3150000063006000F0006000100060002000600030087
S315000006400600040006000500060006000600070076
S31500000650060008000600090015000000150001004C
S3150000066015000200310000002A00000045000000CD
S315000006701000000003010000030000000300010059
S315000006800F0000000D0000002D00000042000000D9
S315000006902C0000002C0001002C0002002C0003009E
S315000006A032000000280000001800000014000000BE
S315000006B014000100140002001400030014000400DA
S315000006C014000500140006001400070014000800BA
S315000006D01400090034000000340001001600000078
S315000006E0160001003500000036000000360001004B
S315000006F02200000033000000330100002900000042
S3150000070010B5054C237833B9044B13B10448AFF345
S3150000071000800123237010BDB003FE1F00000000FF
S3150000072018B4000008B5034B1BB103490348AFF3E7
S31500000730008008BD00000000B403FE1F18B40000CE
S3150000074010B54FF0FF320023026103750C68636831
S315000007504360A368836023880380A3898381E38938
S31500000760C3816368D3E9011218681268904738B9E3
S31500000770A368D3E90112BDE8104012681868104753
S3150000078010BD00BF20B14FF0022303600020704768
S315000007900120704770B5D0E90123996815680446B1
S315000007A01868CB68984770B90B4B01461B6A2088BE
S315000007B09847022007F00AFC63689B6828461B6975
S315000007C09847122800D070BD63689B6828461B694D
S315000007D0BDE87040184700BFACA600002DE9F04701
S315000007E00A2782B006460D4691469846BA46736970
S315000007F028469847B468CDF800A0002342464946EB
S315000008002846A047B3690446284698470CB1013FDD
S31500000810EDD1204602B0BDE8F08700BFF0B52E4A04
S315000008204368156A9E681F6883B0002104460088E5
S31500000830A847022007F0CAFB01212088A84702200A
S3150000084007F0C4FB00238DF80430742304258DF8CB
S31500000850053027238DF806300DEB05022B46394669
S3150000086030468DF80750FFF7B9FF90BBC0238DF8CF
S31500000870053001AA0223394630468DF80450FFF7A9
S31500000880ADFF30BB22238DF804300C238DF80530E4
S3150000089001AA022339463046FFF7A0FFC8B90B224A
S315000008A08DF805008DF80420022301AA394630464A
S315000008B0FFF794FF68B9E0238DF8043001AA3946A2
S315000008C030460123FFF78AFF18B90523237503B0C5
S315000008D0F0BD642003B0F0BDACA600002DE9F04FDA
S315000008E0D0E90123146895689A6885B0074688465A
S315000008F0186853684FF0FF319847064618B13046DE
S3150000090005B0BDE8F08F032388F804304FF00A0BDA
S315000009106323A8F80000A8F802008DF80B30D9462A
S315000009206B69204698470123CDF800901A460DF1D1
S315000009300B01AE682046B047AB6982462046984711
S315000009402046BAF1000F11D16B699847CDF8009097
S3150000095053466E6801220DF10B012046B047AB6984
S31500000960824620469847BAF1000F07D0BBF1010B2B
S31500000970D6D16426304605B0BDE8F08F9DF80B3021
S315000009805B0748BF04234FF00A0948BF88F80430C4
S31500000990CA466B6920469847CDF800A06E680023CA
S315000009A0042203A92046B047AB690646204698476D
S315000009B01EB1B9F10109ECD1DBE79DF80C309DF8C9
S315000009C00D109DF80E2003F00F0341EA0321BB89A9
S315000009D003FB01F12B4B02F00F04A3FB0120091AC4
S315000009E000EB5101C90AA8F800109DF80F20F989FB
S315000009F042EA042201FB02F2A3FB0213D21A03EB22
S31500000A005203DB0AA8F802303B7D5A1E012A10D990
S31500000A10032B10D098F804303B75042B1AD0B8F984
S31500000A2000303B82B8F902307B82304605B0BDE823
S31500000A30F08F03233B7598F80430032BECD1B7F9FC
S31500000A401020B8F900309A4210D0022388F80430FA
S31500000A503B75E4E7B7F91030A8F80030B7F9123063
S31500000A60A8F80230304605B0BDE8F08FB7F912207D
S31500000A70B8F902309A42E8D1012388F804303B7570
S31500000A80CDE700BF0101100020B14FF00223036043
S31500000A9000207047012070472DE9F04F89B00028EB
S31500000AA04BD00E46002948D0CB68002B45D01B689A
S31500000AB0002B42D0464A0168914204466FD0C0F8E6
S31500000AC03833D3E900753369C0F8403333888380FF
S31500000AD07388C3803389A0F83C337389A0F83E330A
S31500000AE07369C0F84433002100F1100880F86413DC
S31500000AF034230122404606F0D1F8002854D1D4F818
S31500000B0038339B6829461B6838469847054668B9B6
S31500000B10D4F838339B6838469B689847054688B1B1
S31500000B20D4F838339B683846DB689847404606F069
S31500000B3009F9284609B0BDE8F08F0125284609B015
S31500000B40BDE8F08F04F1440B01462422584606F016
S31500000B5007F804F58E7A81461C232A462946504614
S31500000B6006F0C6F959EA000320D1049573681949BD
S31500000B70CDE90233B4220123CDE905324FF40073E7
S31500000B80019304F59C730093134A234604F168000D
S31500000B9006F036FA054648B90D4B2360CEE70E251A
S31500000BA0284609B0BDE8F08F6425C7E7D4F8383386
S31500000BB09B683846DB689847584606F01DF840465D
S31500000BC006F0C0F8504606F0E3F96425B6E700BF24
S31500000BD04C4E50540CA60000DD0B00002DE9F04FE2
S31500000BE087B0044600F1440607F094FC4FF0FF334B
S31500000BF000930025804602AB012202213046029571
S31500000C0006F010F804F1080704F1680B0DF10C0A60
S31500000C1004F58E79D4F8383302959A6818685368C3
S31500000C2039469847F8B9B4F90420B4F908309A421D
S31500000C301BDBB4F90620B4F90A309A4215DB01220F
S31500000C4002AB00951146304605F0ECFF029BDB0730
S31500000C5011D54FF0FF330093012202AB022130463B
S31500000C6005F0E0FFD6E7652801D02573E7E758468B
S31500000C7006F082FAE3E7237B022B5AD907F04AFCF7
S31500000C8094F864338046002B35D0B4F90A30D4F892
S31500000C905803D4F84C23B4F9081003FB02F200FB06
S31500000CA003F3D4F8480300FB0122D4F8540300FBF5
S31500000CB00133D4F850130A44D4F85C130B44D4F827
S31500000CC0601392FBF1F212B2002A93FBF1F3B4F92E
S31500000CD0041022811BB2BCBF00222581002B638138
S31500000CE0BCBF658100239142B4F90620B8BF2181BB
S31500000CF09A42B8BF6281B4F83E33B42B24D0B3F520
S31500000D00877F32D05A2B28D0D4F8403363B197E886
S31500000D100300D4F84423CAF800000DF10C0A05922A
S31500000D20ADF81010504698470121484606F0C8F81D
S31500000D3070E707F0EFFBB4F83C336422B2FBF3F341
S31500000D4043449842F0D999E72389A2886189D21A47
S31500000D50E38822815B1A6381D6E7B4F90A20E38827
S31500000D609B1A228962812381CEE7B4F90820A388E1
S31500000D709B1A628922816381C6E700BF002800F0C2
S31500000D80C580002900F0C280002A00F0BF802DE94E
S31500000D90F041634B04689C4240F0BA80B0F804E02E
S31500000DA000230D1D161D51F82340744500F3B38032
S31500000DB0B0F806C055F82340644500F3AC8052F8FD
S31500000DC02340A645C0F2A78056F82340A44503F168
S31500000DD00303C0F2A080092BE5D1D2E906461368C9
S31500000DE01569A3EB040CD3681B1B5468AD1B05FBEC
S31500000DF00CFCA41B04FB13C3C0F86033002B00F0EB
S31500000E008C808D690B68CC68D7691669641B5B1B7F
S31500000E105568F61BED1B06FB03F305FB1433C0F800
S31500000E2048338D69CE680C6897691368761B641B16
S31500000E30D568DB1BED1B06FB03F305FB1433C0F87B
S31500000E404C331668D1F81880D1F800E09469D2F8CE
S31500000E500CC01369CF6806FB08F50EFB145503FB9F
S31500000E6005F50EFB0CF306FB173307FB04F4566877
S31500000E7008FB1C4406FB0454D56905FB0343C0F874
S31500000E805033CD694B680C69D7691669641B5B1BC7
S31500000E905568F61BED1B06FB03F305FB1433C0F880
S31500000EA054339769CD690E694C681368761B641BC9
S31500000EB0D568DB1BED1B06FB03F305FB1433C0F8FB
S31500000EC058331768D1F81CE09569D1F804C00E694B
S31500000ED0D46807FB0EF10CFB1513116901FB03F136
S31500000EE006FB05F35568D2690EFB14330CFB04F4BC
S31500000EF007FB164405FB031302FB04330122C0F86B
S31500000F005C3380F864230020BDE8F081012070473F
S31500000F100720BDE8F0810320F6E74FF49660F3E77B
S31500000F204C4E505468B108B5074B02689A4201D03E
S31500000F30072008BD00220221443005F095FE00205E
S31500000F4008BD0120704700BF4C4E505468B108B52B
S31500000F50074B02689A4201D0072008BD00220121F2
S31500000F60443005F081FE002008BD0120704700BF17
S31500000F704C4E5054D0B138B50D46C9B10F4B01682F
S31500000F809942044601D0072038BD114600F58E70FF
S31500000F9006F014F80D280FD060B9B4F908302B808C
S31500000FA0B4F90A306B80237B2B7138BD0120704762
S31500000FB0012038BD652038BD142038BD4C4E505434
S31500000FC070B5E8B1114B02689A42044602D0072474
S31500000FD0204670BDD0F8383300F1100500212846B0
S31500000FE01E6805F0C5FE70B9D4F838339B683046E4
S31500000FF09B6898470446284605F0E4FE204670BDE7
S315000010000124204670BD0824E2E700BF4C4E505430
S3150000101038B338B5144B02689A4204461FD1D0F84B
S3150000102038339A6800F168051868D36898472846E7
S3150000103006F0A2F804F1440005F0DEFD04F110000C
S3150000104005F080FE284606F0A3F8284606F07EF84E
S3150000105004F58E7005F09CFF0020206038BD072047
S3150000106038BD0120704700BF4C4E505400B583B0C8
S31500001070EFF3058006F0D2FA0E4B186870B1436A9A
S315000010801A682E21C3F8C01093060ED4EFF303831B
S31500001090A3F1100040B2019304F03AFDEFF305808E
S315000010A003B05DF804EB06F0B7BA0121083005F08D
S315000010B007FFEBE7CC03FE1F20B14FF002230360CE
S315000010C0002070470120704703681A6C126882423C
S315000010D00ED010B51A6D9B6C044610685B69A27C35
S315000010E0218A006B984710B923681B6C1C6010BDE1
S315000010F0002070470268037A10680121C06B002245
S31500001100994005F0B1BD00BF70B5036884B01E6D8F
S315000011100025039536680446D86B0092012202FA30
S3150000112001F141F0020103AB05F07CFD38B90398EB
S3150000113010F0020018BF4FF4967004B070BD072877
S3150000114002D0642004B070BD236884F835509B6CCF
S31500001150306B1B69984720B1122808BF142004B0D1
S3150000116070BD1420E9E700BF70B5F0B190F83430D7
S31500001170012B044602D00725284670BD03681A6D68
S315000011805868156805F0F4FD0646C0B92368286B53
S315000011909B6C1B69984794F83530054643B923681C
S315000011A0586805F00FFE284670BD0125284670BD1B
S315000011B02368586805F006FE84F83560EFE70825D1
S315000011C0DAE700BF38B5C0B190F83430012B0446D9
S315000011D002D00725284638BD03680021586805F067
S315000011E0C7FD68B92046FFF76FFF05460028F1D016
S315000011F02368586805F0E6FDECE70125284638BD6A
S315000012000825284638BD00BF70B108B590F83430BF
S31500001210012B01D0072008BD0368586805F0D2FDF0
S31500001220002818BF082008BD0120704738B503689C
S3150000123004460D46D86B0021022205F015FD2368F1
S315000012402946586805F094FD10B16425284638BD36
S315000012502046FFF739FF054618B994F83530002BBC
S31500001260F4D02368586805F0ADFD284638BD00BFA8
S315000012702DE9F0478AB0002900F08A80044600284C
S3150000128000F086800D68AB6C1A680F46002A7FD086
S315000012905A68002A7CD09A68002A79D0DA68002A2F
S315000012A076D01B69002B73D04B68002B70D090F85A
S315000012B03430012B78D028220021684607F058FEEA
S315000012C025607D68EC4605F1200E28686968AA68E5
S315000012D0EB6866460FC610357545B446F5D12868E5
S315000012E06968514ADFF844A1DFF84491ACE803008D
S315000012F0CDE907243B681B788DF800304FF00108D4
S31500001300EFF3108688F310882068856855454FF0FE
S3150000131034034FF00102494600F1080003D005F0FE
S31500001320BDFC002839D186F3108820684FF0FF31C4
S31500001330083005F01DFD0028E2D1226892F84C30F5
S31500001340A3B3013382F84C302068083005F03AFD2B
S315000013500546002854D16E4604F1080C0DF1200E06
S3150000136037460FCF77450CF1100C06F110064CF8F6
S31500001370100C4CF80C1C4CF8082C4CF8043CEFD123
S3150000138003CE0123CCF80000CCF80410A38600E0BD
S31500001390012528460AB0BDE8F08786F31088642543
S315000013A028460AB0BDE8F0870E25F2E7516C506872
S315000013B03423012205F072FC20BB23682422596CD9
S315000013C0D86B05F0CDFB88B93B68206B9B6C6946F2
S315000013D01B68984723680546D0B91B6D1C602368B7
S315000013E01B6C1C60226892F84C30AAE72368586888
S315000013F005F0A8FC20680830642505F0A3FCC8E7C2
S315000014006425C6E720680830642505F09BFCC0E724
S31500001410586805F097FC2068083005F093FC2368AF
S31500001420D86B05F0E9FBB4E7F51000004554554DBF
S3150000143040A60000002835D010B590F83430012BB6
S31500001440044601D0072010BD00684FF0FF31083078
S3150000145005F08EFC236893F84C20012A1AD11A6DE8
S315000014609B6C12685B68106B98472368586805F098
S3150000147069FC2368D86B05F0BFFB226892F84C30F4
S31500001480013B82F84C302068083005F05BFC0020F8
S31500001490A08610BD013A83F84C202068083005F07C
S315000014A091FCF4E70120704738B5B8B190F83430B4
S315000014B0012B044602D00725284638BD0368586824
S315000014C005F056FC68B92046FFF7FEFD05460028E4
S315000014D0F2D02368586805F075FCEDE7012528462B
S315000014E038BD1425284638BDF0B583B008B1019241
S315000014F01AB90125284603B0F0BD0F460029F8D0D9
S315000015001E4690F83430012B044603D007252846A2
S3150000151003B0F0BD0899FFF789FE05460028E9D11A
S315000015202368019A1D6D986C2B688568186B39467F
S315000015303346A847054640B194F83530002BD9D13B
S315000015402368586805F03EFCD4E7089A84F83560AD
S3150000155002212046FFF7D8FD94F835300546002BCA
S31500001560C8D1EDE7F0B583B008B101921AB90125EB
S31500001570284603B0F0BD0F460029F8D01E4690F865
S315000015803430012B044603D00725284603B0F0BDAE
S315000015900899FFF74BFE05460028E9D12368019A12
S315000015A01D6D986C2B68C568186B39463346A8477D
S315000015B0054640B194F83530002BD9D123685868D8
S315000015C005F000FCD4E7089A84F83560032120462C
S315000015D0FFF79AFD94F835300546002BC8D1EDE7A4
S315000015E020B14FF0022303600020704701207047AE
S315000015F0C8B138B5036A04468BB19A687AB10C490A
S31500001600006888420DD192697AB1186890472046E1
S31500001610002540F8045B05F0BBFC284638BD0120D8
S3150000162038BD072038BD01207047062038BD00BFF1
S315000016304E45504F28B1006818B1044B02689A42D3
S3150000164000D070470121043005F03ABC4E45504F9A
S31500001650F0B587B000283DD00D4600293AD00B687A
S315000016609A68002A36D01268002A33D05A68002AAF
S3150000167030D0224A0168914204463CD00022071D20
S31500001680036211461C23384605F032FC58BB2B6812
S315000016905E683068F3687168B2680DF1040CACE8F6
S315000016A00F002B793069CCF80000BBB1144B0393C3
S315000016B00123049484F824302B68226A9B681068FE
S315000016C01B6801A99847054688B90C4B2360284634
S315000016D007B0F0BD0125284607B0F0BDCDE90333BC
S315000016E084F82430E8E76425284607B0F0BD38467C
S315000016F005F04EFCEFE70825EDE700BF4E45504FDD
S315000017003516000078B108B5094B02689A4201D037
S31500001710072008BD043005F051FC0D2805D000282F
S3150000172018BF652008BD01207047142008BD00BF02
S315000017304E45504F836A026B934235D270B582B0E4
S3150000174090F835204FF0FF310446019162B190F8D0
S315000017503420016A02FB03F332B190F842001944C7
S3150000176001AB184407F0F6FBEFF31086012585F36D
S31500001770108894F91E0004F0CBF994F91E30002B62
S3150000178008DB5A09094903F01F03603205FA03F31F
S3150000179041F82230A369019A5A6086F31088A36A39
S315000017A00133A36202B070BD704700BF00E100E0E4
S315000017B030B585B0EFF3058005F030FFEFF3038316
S315000017C01B4A0193A3F11000126840B252F8303060
S315000017D01C68A269137803F00F03137094F91E3086
S315000017E0002B0DDB5A09134D2032012103F01F0394
S315000017F001FA03F345F82230BFF34F8FBFF36F8F23
S3150000180004F086F9236943B12178019101228DF80C
S3150000181008206269039201A8984704F1400004F089
S31500001820B3F9EFF3058005B0BDE8304005F0F4BE2E
S3150000183060A8000000E100E030B583B0EFF305805A
S3150000184005F0ECFEEFF30383A3F1100464B2204627
S31500001850019304F05DF9254B1B6853F834301C687E
S3150000186094F83630ABB1236BE36294F91E30002B4B
S3150000187008DB1F495809012203F01F0302FA03F38C
S3150000188041F82030EFF3058003B0BDE8304005F0A5
S31500001890C3BEA3695B68E3632046FFF74BFFD4E949
S315000018A00B32934218D294F83450616A05FB03F068
S315000018B085B1013804F13B020144134612F8010FC9
S315000018C001F8010F3A3B94F834001B1B9842F4D8F8
S315000018D0D4E90B320133E3629342C6D0EFF30580BD
S315000018E003B0BDE8304005F097BE00BF60A8000019
S315000018F000E100E010B582B0EFF3058005F08EFE42
S31500001900EFF30383A3F1100464B22046019304F0BD
S31500001910FFF8304B1B6853F834301C6894F83630A7
S31500001920CBB9A3691A78120750D594F83920012A41
S3150000193003D01A786FF345121A702046FFF7FAFEA5
S31500001940A26A236B9A4208D0EFF3058002B0BDE885
S31500001950104005F061BE236BA362A26913786FF392
S315000019604513137094F91D0000280FDB43091A492B
S315000019700122203300F01F0002FA00F041F8230094
S31500001980BFF34F8FBFF36F8F94F91D0004F0C0F8BB
S3150000199094F91D30002B09DB5A090F4803F01F0389
S315000019A00121603201FA03F340F8223094F839300D
S315000019B0012BC9D194F91E20002AC5DB064950091E
S315000019C002F01F02934041F82030BDE7A26A002AC8
S315000019D0B3D0AAE760A8000000E100E030B585B00A
S315000019E0EFF3058005F01AFEEFF30382304901920A
S315000019F0A2F1100309685BB251F833301C68A36981
S31500001A002078DA78D10735D50621BC228DF8081062
S31500001A10DA7094F91E30002B0DDB5A09254D203261
S31500001A20012103F01F0301FA03F345F82230BFF347
S31500001A304F8FBFF36F8FA269137803F00F031370F4
S31500001A40236923B101906269039201A8984704F1C2
S31500001A50400004F099F8EFF30383A3F1100040B2BD
S31500001A60019304F055F8EFF3058005B0BDE830406A
S31500001A7005F0D2BDD1B24D0707D5C9060DD4032254
S31500001A808DF80820B922DA70C3E70A070CD50521BC
S31500001A90B5228DF80810DA70BBE70821AD228DF863
S31500001AA00810DA70A369EDE702238DF80830B0E775
S31500001AB060A8000000E100E020B14FF002230360BF
S31500001AC0002070470120704770B51D4682B0144B48
S31500001AD0069E1B6914460022019201AA98479DF9A9
S31500001AE00410317008B102B070BD002910DB01F19D
S31500001AF06041240101F56141E4B281F80043094BDC
S31500001B0096F900201B6853F832301D6002B070BD94
S31500001B10054B01F00F012401E4B25C54EFE700BF6E
S31500001B2080AE000060A8000014ED00E0FFFFFFFF9C
S31500001B302DE9F04F87B00023824604A8CDE904338F
S31500001B40029303F047FE4A4B02A99B6901930120C9
S31500001B5098478146002845D1029FDAF804504FF095
S31500001B60640BA7FB0B7B03462A463846594607F00B
S31500001B7069F8404B9D420CBF059B049B0C460646EC
S31500001B80A3FB070103FB0B1137A3D3E9002307F0DF
S31500001B9059F8051841EB0108751B64EB0808002489
S31500001BA00126A346C827324600232846414607F0A9
S31500001BB049F8E3B2B3FA83F35B0903FB07736330B7
S31500001BC003F5C87341F10001C01A61F100016422F6
S31500001BD0002307F037F8402808D90134082C4FEACB
S31500001BE04606E0D1484607B0BDE8F08FC0F3470788
S31500001BF0BAF80C80019BCDF80CB0C01BC5B203A986
S31500001C0001209847039BB3FBF6F61B4BB3FBF6F399
S31500001C10B8FBF3F3B8F1000F00D00133DAF82C204B
S31500001C2047F0E0071774DAF82C2045F0E005557404
S31500001C30DAF82C108A7864F306128A70DAF82C2007
S31500001C4011796FF301011171517941F02001517140
S31500001C50DAF82C10CA78484663F30612CA7007B041
S31500001C60BDE8F08FAFF3008000CA9A3B0000000089
S31500001C7050A7000040420F0000CA9A3B2DE9F041F0
S31500001C80C8B1114B1646826A9A42044603D007250C
S31500001C902846BDE8F08100F1510840460F4603F0A2
S31500001CA063FF054658B940462781A67203F06CFFCC
S31500001CB02846BDE8F08101252846BDE8F0810A25C1
S31500001CC02846BDE8F08100BF434949522DE9F04757
S31500001CD094B000284FD00E4600294CD0DFF88494EB
S31500001CE04B684B4547D84B6A002B44D00023DFF89E
S31500001CF07C840A78D8F80C70ADF81220CDE9073349
S31500001D00CDE909331523044607A9ADF8103004A818
S31500001D10B847054680BB73684B4503D1BDF82230F2
S31500001D205B072DD504A803F033FF054620BB736A75
S31500001D301B7884F85230079BE3623378ADF82E3077
S31500001D401523CDE90F00CDE91100ADF82C300FA910
S31500001D500BA8B847054650B904F130030093B27B8F
S31500001D60234601210BA8FFF7AFFE054650B104A894
S31500001D7003F03CFF00E00125284614B0BDE8F087DB
S31500001D800325F9E704F131030093F27B234603218F
S31500001D900BA8FFF799FE05460028E8D104F13203A7
S31500001DA00093327C234602210BA8FFF78DFE0546E1
S31500001DB00028DCD104F1330300930146727C2346EC
S31500001DC00BA8FFF781FE05460028D0D1B646BEE82F
S31500001DD00F00A446ACE80F00BEE80F00ACE80F0009
S31500001DE09EE803008CE8030004A803F017FEE36AEC
S31500001DF01A7865F3C7121A701A78C2F3C0128DF8F2
S31500001E000C201A78C2F3C0128DF80C201B78C3F38D
S31500001E10C0138DF80C309DF80C30E36A1A7842F046
S31500001E2040021A701A78C2F380128DF80D201A78C3
S31500001E30C2F380128DF80D201B78E26AC3F380137B
S31500001E408DF80D309DF80D30537ADBB28DF80E30DB
S31500001E50557294F933009DF80E3003F059FE94F94B
S31500001E603330002B09DB5A09BD4803F01F036032EB
S31500001E70012101FA03F340F8223094F9300003F00F
S31500001E8047FE94F93030002B09DB5A09B44803F0B9
S31500001E901F036032012101FA03F340F8223094F95E
S31500001EA0320003F035FE94F93230002B09DB5A0973
S31500001EB0AB4803F01F036032012101FA03F340F837
S31500001EC0223094F9310003F023FE94F93130002BCF
S31500001ED009DB5A09A24803F01F036032012101FA07
S31500001EE003F340F82230E36A1A7842F080021A704F
S31500001EF01A78C2F3C0128DF80F201A78C2F3C012F6
S31500001F008DF80F201B78C3F3C0138DF80F302046D1
S31500001F109DF80F30FFF70CFE0546002840F01C81A7
S31500001F20904B62689A4204D1E26A537943F0800387
S31500001F305371E36A94F85210DA7842F00202DA70CA
S31500001F40A1F10101DA78B1FA81F1490961F30002E0
S31500001F50DA705A7942F001025A71E26A537943F013
S31500001F6002035371E26A537943F004035371E26A40
S31500001F7053796FF3C3035371E26A537943F0100345
S31500001F805371E36A1A786FF386121A701A78C2F3DD
S31500001F9080128DF80B201A78C2F380128DF80B2070
S31500001FA01B78C3F380138DF80B309DF80B30B369A3
S31500001FB0002B62D00023CDE90B33CDE90D33059319
S31500001FC03378ADF81A301523ADF818300BA906A8EA
S31500001FD0B8478446002840F0D480B3699A68002A3E
S31500001FE000F0B9801A68002A00F0B5805B68002B03
S31500001FF000F0B180D3F80090B9F1000F00F0AB808B
S3150000200094F93030213300F0A680D8F8103006A8B5
S3150000201005AA012198478446002840F0B280B9F805
S315000020200230E26A23F02C039B059B0D43F0080364
S315000020301332A9F80230C9F80420D6F818A0DAF845
S315000020400490B9E80F000DF13C0EAEE80F00D9F888
S315000020500030CEF80030BDF81630ADF840308DF8BF
S3150000206042C0CDF844C0DAF80830DAF800001B6840
S315000020700FA99847002840F08A807369002B58D032
S315000020800023CDE90B33CDE90D3305933378ADF855
S315000020901A3015230BA9ADF8183006A8B84707461D
S315000020A0002870D173699A68002A61D01A68002ADC
S315000020B05ED05B68002B5BD0D3F80090B9F1000FBF
S315000020C056D094F93130213352D0D8F8103006A8C2
S315000020D005AA032198470746002854D1B9F80230CB
S315000020E0E26A23F02C039B059B0D43F40063123236
S315000020F0A9F80230C9F80820D6F81480BDF8169061
S31500002100D8F804E0BEE80F000DF13C0CACE80F0077
S31500002110DEF80030CCF80030ADF840908DF8427013
S315000021201197D8F80830D8F800001B680FA998470F
S3150000213058BB00230C4A84F85130636384F8493055
S31500002140A36384F84A30E36384F84B30236484F84D
S315000021504C30A26210E6012504A803F035FC06E621
S3150000216000E100E040420F004349495280AE0000C2
S315000021700125B369002BEFD09A681868D369984790
S31500002180EAE76546E8E73D46F3E70546F1E7054633
S31500002190E2E700BF10B5C26984B0044682B1836B22
S315000021A0006A0190E06B8DF80C101B1A94F853101E
S315000021B002938DF80D1001A89047002384F84B3048
S315000021C0E36A0022DA7194F9333093420DDB5A093F
S315000021D024480121203203F01F0301FA03F340F8DB
S315000021E02230BFF34F8FBFF36F8F94F93030002B3F
S315000021F00DDB5A091B480121203203F01F0301FAA7
S3150000220003F340F82230BFF34F8FBFF36F8F94F97B
S315000022103230002B0DDB5A0912480121203203F01F
S315000022201F0301FA03F340F82230BFF34F8FBFF3C9
S315000022306F8F94F93130002B0DDB5A0909480121C3
S31500002240203203F01F0301FA03F340F82230BFF3F4
S315000022504F8FBFF36F8F04F1510004B0BDE81040FB
S3150000226003F092BC00E100E010B582B000237C21AF
S315000022700122019104468DF8022080F84B3080F847
S315000022804D3080F84E3080F84F3080F8503090F85E
S315000022904C20806B94F8461084F84830C4E90F034C
S315000022A084F84710002A60D1019B4BB1E26A04E032
S315000022B0019B013B0193019B13B15378DB09F7D1D5
S315000022C0019B002B00F0D980E26A537A0021DBB231
S315000022D08DF80330517294F933009DF8033003F002
S315000022E017FC94F93330002B09DB5A09664803F0D2
S315000022F01F030121603201FA03F340F8223094F9FA
S31500002300300003F005FC94F93030002B09DB5A0944
S315000023105D4803F01F030121603201FA03F340F820
S31500002320223094F9320003F0F3FB94F93230002B9B
S3150000233009DB5A09544803F01F030121603201FAF0
S3150000234003F340F8223094F9310003F0E1FB94F9ED
S315000023503130002B09DB5A094B4803F01F030121DA
S31500002360603201FA03F340F82230E36A94F852101F
S31500002370DA7842F00202DA70A1F10101DA78B1FAF4
S3150000238081F1490961F30002DA705A7942F00102DB
S315000023905A71E16A94F93330CA79002B42F01F0270
S315000023A0CA7108DB38495809012203F01F0302FAF3
S315000023B003F341F82030E16A94F93030CA79002BF2
S315000023C042F02002CA7108DB2F495809012203F0A6
S315000023D01F0302FA03F341F82030E16A94F9323020
S315000023E0CA79002B02F0BF02CA710DDB5A092648D2
S315000023F00121203203F01F0301FA03F340F82230D3
S31500002400BFF34F8FBFF36F8FE16A94F93130CA790A
S31500002410002B42F08002CA7108DB1B4958090122D1
S3150000242003F01F0302FA03F341F8203094F84C300E
S31500002430D3B1002384F84C30E3693BB1002002B0ED
S3150000244010BD94F8513003F0FF029BB19DF80230A5
S3150000245003F0FF02002BF4D194F84B30002BEDD0A3
S3150000246084F84B201220EAE7E26A537843F002032D
S315000024705370E1E78DF80220E8E704F1510003F01C
S3150000248083FB082002B010BD00E100E0002846D022
S315000024902DE9F0410F4682B0002938D01646002AB1
S315000024A035D0826A1D46284B9A42044633D100F144
S315000024B05108404603F058FB00283DD1A3694BB1B3
S315000024C0CDE900009A681868936969469847009BA9
S315000024D09E4233D2A37A84F84A500122934284F86A
S315000024E04920C4E90D7622891BD0D30903F00E03D7
S315000024F0032163F00F0384F8453084F8442084F800
S315000025004610204602B0BDE8F041FFF7ADBE0120FF
S3150000251002B0BDE8F081072002B0BDE8F0810120DD
S3150000252070475200002142F0010284F8451084F8F9
S31500002530442084F84630E4E70A20E9E7404603F001
S3150000254023FB1720E4E700BF4349495200284AD03D
S315000025502DE9F0410D4682B0002946D017461E46A9
S31500002560826A274B9A42044603D0072002B0BDE890
S31500002570F08100F15108404603F0F6FA002838D100
S3150000258063694BB1CDE900009A681868936969469A
S315000025909847009B9F422ED2A37A84F84A60002275
S315000025A0012BC4E90D57E76384F8492012D022892C
S315000025B084F84420D30923F00103022163F00F03BA
S315000025C084F8453084F84610204602B0BDE8F04154
S315000025D0FFF74ABE218984F845204A0084F8442042
S315000025E084F84630F0E701207047012002B0BDE8CC
S315000025F0F0810A20BAE7404603F0C6FA1720B5E78D
S315000026004349495230B5456987B0044635B190F81B
S31500002610493003F0FF02002B00F0F281A56915B1E5
S3150000262094F849304BB9E06BC8B994F84C30B3B95B
S3150000263094F84B309BB907B030BD00238DF81630A7
S31500002640AB6828689B6904A998479DF81630002B4B
S31500002650E9D0AB6828685B6998470123E363E36ABE
S315000026600022DA7194F9333093420DDB5A0964483B
S315000026700121203203F01F0301FA03F340F8223050
S31500002680BFF34F8FBFF36F8F94F93030002B0DDB04
S315000026905A095B480121203203F01F0301FA03F3B4
S315000026A040F82230BFF34F8FBFF36F8F94F932306B
S315000026B0002B0DDB5A0952480121203203F01F037B
S315000026C001FA03F340F82230BFF34F8FBFF36F8F49
S315000026D094F93130002B0DDB5A094948012120328B
S315000026E003F01F0301FA03F340F82230BFF34F8FC4
S315000026F0BFF36F8FE36A5A78510640F19480997858
S3150000270011F007014DD000228DF80D20DA7894F8EB
S31500002710520042F00202DA70A0F10100DA78B0FA53
S3150000272080F0400960F30002DA705A7942F0010243
S315000027305A71E36A01311A7842F020021A701A7847
S31500002740C2F340128DF80E201A78C2F340128DF8AB
S315000027500E201A78E36AC2F340128DF80E209DF817
S315000027600E201A78920608D40BE05A7AC2F30002B9
S315000027708DF80D201A78950603D59DF80D20002AB0
S31500002780F3D0013911F0FF01D5D11A78D00708D45A
S315000027901A7861F304121A701A7842F004021A7059
S315000027A0E36A5A7842F008025A705978E26AC9B266
S315000027B08DF80C10587894F85210C0B28DF80C00B1
S315000027C05B78DBB28DF80C309DF80C30D37843F093
S315000027D00203D370A1F10101D378B1FA81F149095D
S315000027E061F30003D370537943F001035371E36A35
S315000027F000208DF80B005A7811070BD40EE000BFAD
S3150000280000E100E05A7AC2F300028DF80B205A78F4
S31500002810120703D59DF80B20002AF3D09DF80B2054
S31500002820002A40F000811A786FF3C7121A701978DF
S31500002830E26AC1F3C0118DF807101978C1F3C0110F
S315000028408DF807101B78C3F3C0138DF807309DF879
S315000028500730137843F0400313701378E06AC3F32C
S3150000286080138DF808301378C3F380138DF8083081
S315000028701378C3F380138DF808309DF80830437A37
S315000028800021DBB28DF80930417294F933009DF8CE
S31500002890093003F03DF994F93330002B09DB5A096E
S315000028A0894803F01F030121603201FA03F340F85F
S315000028B0223094F9300003F02BF994F93030002BD4
S315000028C009DB5A09804803F01F030121603201FA2F
S315000028D003F340F8223094F9320003F019F994F921
S315000028E03230002B09DB5A09774803F01F03012118
S315000028F0603201FA03F340F8223094F9310003F014
S3150000290007F994F93130002B09DB5A096E4803F0B8
S315000029101F030121603201FA03F340F82230E36A13
S315000029201A7842F080021A701A78C2F3C0128DF833
S315000029300A201A78C2F3C0128DF80A201B78C3F356
S31500002940C0138DF80A3020469DF80A30FFF7F0F8DC
S315000029505E4B62689A4204D1E26A537943F080037F
S315000029605371E36A94F85210DA7842F00202DA7090
S31500002970A1F10101DA78B1FA81F1490961F30002A6
S31500002980DA705A7942F001025A71E26A537943F0D9
S3150000299002035371E26A537943F004035371E26A06
S315000029A053796FF3C3035371E26A537943F010030B
S315000029B05371E36A1A786FF386121A701A78C2F3A3
S315000029C080128DF806201A78C2F380128DF8062040
S315000029D01B78C3F3801320468DF8063001219DF83D
S315000029E00630FFF7D7FB94F84610A26B84F8481020
S315000029F000231220E363226484F84C3007B030BD14
S31500002A008DF81620AB6828689B6904A998479DF83D
S31500002A101630002B3FF402AEAB6828685B69984716
S31500002A200123E363FAE500228DF80F20DA7894F8A3
S31500002A30521042F00202DA70A1F10101DA78B1FA1D
S31500002A4081F1490961F30002DA705A7942F0010214
S31500002A505A71E36A09211A7842F020021A701A782C
S31500002A60C2F340128DF810201A78C2F340128DF886
S31500002A7010201A78E36AC2F340128DF810209DF8F0
S31500002A8010201A78950608D40BE05A7AC2F3000291
S31500002A908DF80F201A78900603D59DF80F20002A8E
S31500002AA0F3D0013911F0FF01D5D11A78D2073FF5DD
S31500002AB0BAAE1A7861F304121A701A7842F0040258
S31500002AC01A70E36AAFE600BF00E100E040420F0083
S31500002AD038B1054A836A934201D007207047FFF751
S31500002AE091BD0120704700BF4349495230B583B0BC
S31500002AF0002877D03D4B826A9A42044603D00725C8
S31500002B00284603B030BDFFF77DFDA36900220546C8
S31500002B10A2621BB19A681868D369984763691BB1AA
S31500002B209A681868D3699847E36A0022DA7194F9BB
S31500002B30333093420DDB5A092D482032012103F030
S31500002B401F0301FA03F340F82230BFF34F8FBFF3A0
S31500002B506F8F94F93030002B0DDB5A092448203250
S31500002B60012103F01F0301FA03F340F82230BFF3FB
S31500002B704F8FBFF36F8F94F93230002B0DDB5A095C
S31500002B801B482032012103F01F0301FA03F340F82A
S31500002B902230BFF34F8FBFF36F8F94F93130002B84
S31500002BA00DDB5A0912482032012103F01F0301FAF6
S31500002BB003F340F82230BFF34F8FBFF36F8F14F843
S31500002BC0513BADF80630152201A8ADF8042002F0FD
S31500002BD0FBFE01A803F00AF8204602F0D5FF2846BE
S31500002BE003B030BD0125284603B030BD43494952E4
S31500002BF000E100E030B583B0EFF3058004F00EFD90
S31500002C00EFF30383A3F1100040B2019302F080FFBB
S31500002C10EFF3038272490192A2F1100309685BB2D5
S31500002C2051F833301C6894F84D30002B50D1A36B0B
S31500002C30022B04D8E26A137943F040031371E36B65
S31500002C40012BE36A1A7942F010021A711A79C2F35B
S31500002C5000126AD08DF801201A79C2F300128DF89D
S31500002C6001201A79C2F300128DF801209DF8012087
S31500002C701A796FF3C3021A71A169A9B194F84930A0
S31500002C8093B1A36B032B0FD98A6808685568626BEA
S31500002C90033B9BB20021A847A36B0321033BC4E976
S31500002CA00F13012284F84E20E26A537A9906FCD566
S31500002CB0D37CDBB28DF8003001229DF8003084F819
S31500002CC04D20EFF3058003B0BDE8304004F0A4BC0E
S31500002CD094F84E304BB1002384F84E30EFF3058064
S31500002CE003B0BDE8304004F097BCE36B002BF5D091
S31500002CF0032B48D0022B2BD0012B4AD0E26A606B03
S31500002D00216C537A9B06FCD5D37C4354E36B012B91
S31500002D1005D1E26A13796FF386131371E36B226CA4
S31500002D20013B0132C4E90F32D8E78DF802201A7947
S31500002D30C2F300128DF802201A79C2F300128DF840
S31500002D4002209DF802201A7942F008021A7193E7D0
S31500002D50E36A1A7942F010021A711A79C2F3001264
S31500002D608DF804201A79C2F300128DF804201A791E
S31500002D70C2F300128DF804209DF804201A7942F05F
S31500002D8008021A71BAE7E26A137943F04003137135
S31500002D90B4E794F84A2002F0FF013AB1E16A4A78B2
S31500002DA042F004024A7084F84C30A7E7E26A537A8C
S31500002DB061F3C3035372E36A5A7842F008025A7009
S31500002DC05A78D2B28DF803205A78D2B28DF8032001
S31500002DD05B78DBB28DF803309DF803308EE700BFD9
S31500002DE060A800002DE9F04182B0EFF3058004F001
S31500002DF015FCEFF30383A3F1100040B2019302F038
S31500002E0087FEEFF3038263490192A2F1100309687A
S31500002E105BB251F833301C6894F84750002D4AD104
S31500002E2094F8493003F0FF02002B3DD194F84F305F
S31500002E30002B5DD1E36B5BB1226C616BE36A8A5C4C
S31500002E409A74D4E90F320132013BC4E90F325BBBFD
S31500002E5094F93130002B0DDB5A094F4801212032FD
S31500002E6003F01F0301FA03F340F82230BFF34F8F3C
S31500002E70BFF36F8F94F93250E46A284602F048FE99
S31500002E80002D4FDB6B099B0003F1604305F01F0526
S31500002E90012003F5614300FA05F5C3F88051E27994
S31500002EA042F04002E2711D60EFF3058002B0BDE81A
S31500002EB0F04104F0B1BB94F84630032B22D0012B2D
S31500002EC094F8446018D8012D31D0E36A9E7494F8C2
S31500002ED0482094F847300132013B84F8482084F8B2
S31500002EE04730EFF3058002B0BDE8F04104F094BB33
S31500002EF0E36B84F84F20AAE794F848204AB994F87F
S31500002F004560E0E794F84820022A2AD094F8446005
S31500002F10F4E7022AD7D1032B04BF94F8456046F0A4
S31500002F200106D0E7E37943F04003E371BCE7636948
S31500002F30002BCAD094F8491001F0FF070029C4D12C
S31500002F40A26B002AC1D09A681868D2F80480A38FB1
S31500002F50616B3A46C047A36B84F84F50C4E90F73C0
S31500002F60B3E794F850100029D0D194F93250E46AAE
S31500002F70284602F0CDFD002DD4DB6B099B0003F142
S31500002F80604305F01F05012203F5614302FA05F5CA
S31500002F9083E700BF60A8000000E100E010B582B042
S31500002FA0EFF3058004F03AFBEFF303824849019200
S31500002FB0A2F1100309685BB251F833301C6894F82B
S31500002FC049301BB194F84730012B55D0E36B002BE9
S31500002FD03BD0E36A5A7A6FF386125A725A7AE06ADB
S31500002FE0C2F380128DF80220597A94F93220C1F387
S31500002FF080118DF802105B7AC3F380138DF80230CE
S315000030009DF80230C379002A03F0BF03C3710DDBBC
S31500003010530930480121203302F01F0201FA02F25F
S3150000302040F82320BFF34F8FBFF36F8FEFF3038377
S31500003030A3F1100040B2019302F06AFDEFF30580A0
S3150000304002B0BDE8104004F0E7BA94F84A30FBB984
S31500003050E36A5A7842F008025A705A78D2B28DF86A
S3150000306003205A78D2B28DF803205B78DBB28DF854
S3150000307003309DF80330ACE794F85020002AA5D120
S31500003080E16A4A7842F004024A7084F85030A0E7B8
S3150000309094F9310002F03CFD94F93130002B09DB44
S315000030A05A090C4803F01F030121603201FA03F3A9
S315000030B040F82230E26A537843F004035370E26A20
S315000030C0537901216FF30003537184F84C1080E7A4
S315000030D060A8000000E100E000B583B0EFF30580D2
S315000030E004F09CFAEFF303823E490192A2F1100329
S315000030F009685BB251F833301868C36A5A7A12F01D
S31500003100010204D0597A6FF3000101225972597AEB
S31500003110890705D5597A6FF3410142F002025972C7
S31500003120597AC90605D5597A6FF3041142F010028F
S315000031305972597A490721D593F809C06FF3820C61
S3150000314083F809C093F809C01CF0080F42F0040187
S315000031501AD093F809C06FF3C30C83F809C0D2B133
S3150000316041F00801C9B20123CA0780F84B3033D4B5
S31500003170CA0630D5102380F853302FE093F809C0E3
S315000031801CF0080F1146E4D1002AECD190F84C301F
S3150000319093B14B0710D5C36A5A7A6FF304125A7269
S315000031A05A7A6FF3C3025A7290F84930002B14BF53
S315000031B002210321FEF7EEFFEFF30383A3F11000D4
S315000031C040B2019302F0A4FCEFF3058003B05DF872
S315000031D004EB04F021BA022380F85330FFF712FA09
S315000031E0EAE700BF60A8000010B40B4B1C68B4EB04
S315000031F0102F03D803205DF8044B704749B15B6874
S315000032005DF8044B020A520104330020D3580B80A8
S3150000321070470120EFE700BF6803FE1FD2B110B46C
S315000032200D4B1C68B4EB102F4FEA102C03D803206B
S315000032305DF8044B70475B6822EA01004FEA4C1CBC
S3150000324008330A4042EA00424CF8032000205DF8A9
S31500003250044B7047032070476803FE1F12B310B477
S31500003260114B1C68B4EB102F4FEA102C03D8032027
S315000032705DF8044B70475C684FEA4C1C02EA010398
S3150000328054F80C00034361EA02019AB2114054F863
S315000032900C20120C1204114344F80C1000205DF8A7
S315000032A0044B7047032070476803FE1F10B40B4B96
S315000032B01C68B4EB102F03D803205DF8044B70474D
S315000032C051B15B685DF8044B020A520104330020D9
S315000032D0D3581B0C0B8070470120EEE76803FE1FD6
S315000032E010B40D4C2368B3EB102F03D803205DF800
S315000032F0044B7047002AF9D063684FEA102C083354
S3150000330022EA010003EB4C130A4042EA00425A60EB
S3150000331000205DF8044B70476803FE1F20B14FF094
S3150000332002230360002070470120704738B50488E7
S31500003330002C4DD043680021043303EBC40040F257
S3150000334002450C4640F2034C40F2044E0FE0624543
S3150000335030D153F8042C02F0B852B2F1807F14BF7A
S3150000336041F0020144F002040833834211D01A8866
S31500003370AA42ECD153F8042C02F0B852B2F1807F85
S3150000338003F1080314BF41F0010144F00104834234
S31500003390EDD1C943CDB2012002F0A6FC0D4B93F846
S315000033A0BB2414432C4083F8BB44BDE838400120BD
S315000033B002F06ABC7245D7D153F8042C02F0B85219
S315000033C0B2F1807F0CBF44F0040441F00401CBE766
S315000033D0FF25E0E700E00140012958D870B42E4BE4
S315000033E01A68B2EB102F4FEA102409D99A68C0B2B6
S315000033F052F8245000F110060122B2402A4202D1AE
S31500003400032070BC704700EB0410D3E9035454F852
S31500003410203000293DD043F00401204E0E40EFF34A
S31500003420108C012383F310881D4B1A8892B212B9AF
S31500003430EA704022EA701A88013292B21A808CF33E
S31500003440108811F4803F54F8202007D022F48032EF
S3150000345044F82020134A0A4044F8202044F820600B
S31500003460EFF31081012282F310881A8892B21AB102
S315000034701A88013A92B21A801B889BB213B980222D
S31500003480EB70EA7081F31088002070BC704703204F
S31500003490704723F00401C0E76803FE1FD5FC011F37
S315000034A0D003FE1FD5FC001F70B582B00446002570
S315000034B001A80E468DF8045002F07EF99DF80430FE
S315000034C0DB0713D5202C0ED8012E0CD8094BDB6850
S315000034D01A780CBF22EA04041443284604F0300488
S315000034E01C7002B070BD032002B070BD062002B091
S315000034F070BD00BF6803FE1F002861D02DE9F047AC
S3150000350043680646002B58D0FFF710FF3388002B80
S3150000351050D02C4F2C4A4FF0000C4FF0010E4FF0BC
S31500003520400A4FF080097168F8681FFA8CF401EBC5
S31500003530C40351F834509B883C69190ADBB203EB8B
S315000035400113EFF310888EF31088118889B211B930
S31500003550C17080F803A01188013189B2118088F307
S31500003560108815F4803F54F8231007D021F48031D9
S3150000357044F8231025F4803144F8231044F82350EE
S31500003580EFF310818EF3108813889BB21BB113885A
S31500003590013B9BB2138013889BB213B9C37080F8AA
S315000035A0039081F3108831880CF1010C1FFA8CF31B
S315000035B09942B8D80020BDE8F0870120BDE8F08721
S315000035C0012070476803FE1FD003FE1F00282ED07F
S315000035D070B5436886B00446002B2AD01649174DAD
S315000035E0CE68092200230192CDE90233CDE90433E6
S315000035F002A901A8B0470A238DF80430029B6B602C
S31500003600059BAB6002A9BDF80C302B6001A8B04742
S31500003610012302A98DF8053001A8029B2B61B04752
S31500003620029BEB602046FFF767FF06B070BD0120E6
S315000036307047012006B070BD80AE00006803FE1F13
S3150000364030B4124C2268B2EB102F0CD9A268030AD0
S31500003650C0B252F8235000F1100C012202FA0CFC01
S315000036601CEA050F02D1032030BC704751B1226914
S3150000367000EB031330BC52F82330C3F340030020A1
S315000036800B707047104630BC704700BF6803FE1FC2
S3150000369030B4154C2368B3EB102F0CD9A368020A7B
S315000036A0C0B253F8225000F1100C012303FA0CFCAF
S315000036B01CEA050F02D1032030BC704789B164684B
S315000036C05201043403FA00F0145982B200EA14409D
S315000036D0824214BF0020002030BC0CBF0B70087063
S315000036E07047184630BC70476803FE1F10B5174A6E
S315000036F01468B4EB102F0DD9030A9468C0B254F8BD
S31500003700234000F1100C4FF0010E0EFA0CFC1CEADF
S31500003710040F01D1032010BD7145FBD852680CD0AF
S31500003720083202EB43130EFA00F0596841EA0041F1
S31500003730090C09045960002010BD083202EB43133E
S3150000374081405868014389B2F4E700BF6803FE1F51
S31500003750012921D830B4124C2368B3EB102F4FEA5D
S3150000376010220BD9A368C0B253F8225000F1100CF6
S31500003770012303FA0CFC1CEA050F02D1032030BC1E
S31500003780704703FA00F049B183B26168520108310B
S315000037900020535030BC7047032070470304F4E701
S315000037A06803FE1F2DE9F0412E4D2B68B3EB102F59
S315000037B084B00CD9AB68060AC7B253F8263007F1B5
S315000037C010024FF0010808FA02F21A4203D1032050
S315000037D004B0BDE8F08102ABADF80C0068460C46BB
S315000037E002910193ADF80080FFF7A0FDD5E90351E2
S315000037F007EB0613EFF3108688F310881A48028841
S3150000380092B212B9EA704022EA700288013292B28C
S31500003810028086F31088E60351F8232007D522F4A8
S31500003820803241F8232024F4803241F8232041F8E5
S315000038302340EFF31082012383F3108803889BB2A1
S315000038401BB10388013B9BB2038003889BB213B96B
S315000038508021EB70E97082F31088002004B0BDE887
S31500003860F08100BF6803FE1FD003FE1F80B1094B25
S3150000387002689A420AD110B44468427CA35C61F3A0
S315000038800103A35400205DF8044B704707207047DE
S31500003890012070475543490068B1084B02689A42B7
S315000038A007D14168427C8B5C43F080038B54002037
S315000038B07047072070470120704700BF55434900F5
S315000038C068B1084B02689A4207D14168427C8B5C1A
S315000038D06FF3C7138B5400207047072070470120F1
S315000038E0704700BF5543490020B14FF002230360E3
S315000038F0002070470120704780B3194B02689A4236
S3150000390028D190F9103013F1210F25D0002B10B5D6
S315000039101BDB5909134C0122203103F01F0302FA65
S3150000392003F344F82130BFF34F8FBFF36F8F90F945
S315000039301030002B09DB5909603103F01F0302FA2E
S3150000394003F344F8213090F91030184602F0E0F8FD
S31500003950002010BD07207047642070470120704783
S315000039605543490000E100E058B310B5164B026814
S315000039709A42044621D190F9100010F1210F1ED071
S3150000398002F0C6F894F91030002B14DB59090F48E1
S3150000399003F01F030122603102FA03F340F82130DD
S315000039A094F91030002B06DB590903F01F0302FAC5
S315000039B003F340F82130002010BD072010BD64201D
S315000039C010BD0120704700BF5543490000E100E0EB
S315000039D0002843D010B5224B02689A4282B00446B2
S315000039E039D190F91000627CADF80620062310F15B
S315000039F0210FADF8043027D000281BDB42091949F6
S31500003A000123203200F01F0003FA00F041F82200E3
S31500003A10BFF34F8FBFF36F8F94F91000002809DBB7
S31500003A204209603200F01F0003FA00F041F822005C
S31500003A3094F9100002F06CF80B4B94F910101B6807
S31500003A4053F8313000221A6001A802F0CFF80020A6
S31500003A50206002B010BD072002B010BD01207047E3
S31500003A605543490000E100E060A8000000B583B0BE
S31500003A70EFF3058003F0D2FDEFF303820F490092C6
S31500003A80A2F1100309685BB251F833301B689A68DB
S31500003A902AB1597C0191DB68009368469047EFF3A1
S31500003AA00383A3F1100040B2009302F031F8EFF364
S31500003AB0058003B05DF804EB03F0AEBD60A800001E
S31500003AC030B5254B83B01446002242801B69019213
S31500003AD00D4601AA217898479DF904302B7410B938
S31500003AE013F1210F01D103B030BD62781B491201D9
S31500003AF0002B0968D2B229DB03F1604000F5614072
S31500003B0080F8002351F833301D602379002BEAD06A
S31500003B1095F9100001F0FCFF95F91030002BE2DB5F
S31500003B2059090F4803F01F030122603102FA03F31B
S31500003B3040F8213095F91030002BD4DB590903F0F9
S31500003B401F0302FA03F340F82130CCE7054803F0DF
S31500003B500F0C60440276D5E780AE000060A8000036
S31500003B6000E100E0FCEC00E070B586B000294FD023
S31500003B70064600284CD000230622CDE90123CDE9D4
S31500003B8003330593294B0C46DB6802A901A8984725
S31500003B900546002839D1029ABDF80E30726013F03E
S31500003BA0040F23780CBF082210229A4238D9A26843
S31500003BB012B16278FF2A36D001A8ADF8063001F0BE
S31500003BC0E7FF054640BBA368B360E368F36023786C
S31500003BD07374224601A83146FFF772FF7168727C42
S31500003BE0E0788B5C60F305138B547168727CA07867
S31500003BF08B5C60F301038B547168727C60798B5C1B
S31500003C0060F3C7138B540A4B3360284606B070BD69
S31500003C100125284606B070BD0825284606B070BDA9
S31500003C2040F27A55F1E70325EFE700BF80AE0000CA
S31500003C3055434900034B04301B6823F8201000202D
S31500003C40704700BFD403FE1F034B1A68031D0020F4
S31500003C5022F82300704700BFD403FE1F034B1A68E7
S31500003C60137843F08003002013707047D403FE1FBF
S31500003C70034B1A6813786FF3C7130020137070474D
S31500003C80D403FE1F20B14FF00223036000207047CB
S31500003C900120704770B586B0002833D01B4A002338
S31500003CA00B21CDE90113CDE90333D2680593044610
S31500003CB002A901A89047054610B1284606B070BD76
S31500003CC0134E029B336001A801F0A8FE636873B12E
S31500003CD030682B46A26812F8231002EB83020431E7
S31500003CE0528820F82120626801339A42F2D823785C
S31500003CF0002BE2D032681378284643F08003137015
S31500003D0006B070BD0125284606B070BD80AE000025
S31500003D10D403FE1F60B1012808D1094B1B6800209F
S31500003D2040214122187119711A717047012070479C
S31500003D30034B1B6840214122987099709A70704716
S31500003D40D403FE1F062070470620704790B10A4B29
S31500003D5002689A420CD190F90630084AC0331268BC
S31500003D6052F823106FF3186142F8231000207047B1
S31500003D70072070470120704700435444E003FE1FAC
S31500003D8020B14FF0022303600020704701207047E6
S31500003D90002830D0234B02689A422ED159B310B472
S31500003DA0214B1B68DB8900228A7113F4004F9AB2FB
S31500003DB090F906302AD11D4C54F82320D37803F00D
S31500003DC0C003802B2AD0D3899BB28B80D27802F095
S31500003DD0C002402A04BFDBB28B8090F9063054F84B
S31500003DE02330D87810F0C00009D14FF480335DF845
S31500003DF0044B0B60704701207047072070474FF453
S31500003E00807300205DF8044B0B60704752B29342FA
S31500003E10D1D101238B7190F90630CCE793898B8041
S31500003E20DBE700BF00435444DC03FE1F0000FE1F17
S31500003E3010B3124A01689142034619D190F906203F
S31500003E4012F1210F16D010B40D490E4C0968C0327C
S31500003E5051F822006FF3186041F8220093F906101A
S31500003E60002244F821201A6010465DF8044B704782
S31500003E70072070470B2070470120704700435444C9
S31500003E80E003FE1F0000FE1F50B31F4B02689A425C
S31500003E9028D190F9063013F1210F2ED01B4A52F883
S31500003EA023209168E1B15168D1B1D17801F0300198
S31500003EB0102919D0202910D0154AC033126852F89B
S31500003EC023106FF3104142F8231052F8231041F0EB
S31500003ED0807142F8231000207047916889070ED040
S31500003EE00120704707207047906810F00100F8D154
S31500003EF0506810F00100DFD070470B207047526801
S31500003F009207EDD1D8E700BF004354440000FE1FDE
S31500003F10E003FE1FF0B583B00191009200284AD05D
S31500003F2090F90620294D55F82240E17811F0C0019C
S31500003F3036D1274904688C4240D12649264C096867
S31500003F402468C03251F822606FF3186641F8226087
S31500003F5022786FF304122270019A2AB190F9062092
S31500003F60019955F822205160009A2AB190F906204D
S31500003F70009955F82220916090F9062055F82210F4
S31500003F80CA7802F0C002802A1ED002B9CB81FFF7A0
S31500003F907BFF237843F01003237090B903B0F0BD84
S31500003FA07BB10B4E0768B74208D18029C5D1E1899C
S31500003FB089B20029C1D1012003B0F0BD072003B0AA
S31500003FC0F0BD132003B0F0BD8B81E0E70000FE1FBB
S31500003FD000435444E003FE1FDC03FE1FF0B583B02C
S31500003FE001919DF820C0BDF824600092002853D0AE
S31500003FF090F906202C4C54F82210C97801F0C00123
S3150000400080294CD1002E47D0002B45D02749056882
S315000040108D4247D12649274D09682D68C03251F88F
S3150000402022706FF3186741F822702A786FF3041232
S315000040302A70019A2AB190F90620019954F8222093
S315000040405160009A2AB190F90620009954F822206E
S31500004050916090F9062054F82220968190F9062066
S3150000406054F82220D38190F9063054F82330DA78B8
S315000040706CF30512DA7090F9063054F823309A7B07
S31500004080DA73FFF701FF2B78002843F0100318BFFF
S3150000409013202B7003B0F0BD012003B0F0BD062045
S315000040A003B0F0BD0720F8E70000FE1F00435444AC
S315000040B0E003FE1FDC03FE1F00287CD02DE9F0473D
S315000040C00D4686B0002954D00B68002B51D0DA7803
S315000040D012F0C00F064647D1504B32689A424CD078
S315000040E04F4F3B78002B4CD04E4B1C68B5F804E084
S315000040F0002302E00133702B5FD003F1C00C59B2EC
S3150000410054F82C20C2F308029645F3D154F82C201B
S31500004110454CC2F30802B28054F823206ABB2A68D1
S31500004120D07810F0C00F1CBF907BD073907810F041
S31500004130C00002F11002F3D13C4ADFF8E0C0176874
S315000041403A7860F304123A702A6844F82320B17171
S31500004150C6F800C0A879002836D13B7843F0100392
S315000041603B7006B0BDE8F087DB899BB2B3F5807F74
S31500004170B2D9012006B0BDE8F087082006B0BDE838
S31500004180F0870822CDE90123CDE903330593284BB7
S315000041900DEB0201DC6801A8A0470028EAD1DFF890
S315000041A08C90029BC9F8003001A801F0F1FC804612
S315000041B0A8B10A20DEE701207047D4F87C32C3F3A9
S315000041C008030B20B380D5E73046FFF75DFE3B784A
S315000041D0002843F010033B7018BF1320CAE7DFF82E
S315000041E048A001A801F01AFC41464FF4E07250467F
S315000041F004F0BEFED9F80030C3F804A01A7B42F0E2
S3150000420001021A7306238DF8043002A901A8A047FB
S31500004210044B029C1C6001233B7067E70043544437
S31500004220D803FE1FE003FE1F0000FE1FDC03FE1F77
S3150000423080AE0000062070470620704706207047B3
S3150000424020B14FF002230360002070470120704721
S3150000425032490B6893F8282002F03003102B0CD05B
S31500004260202B02D000238B61704790F82B302C4A0C
S315000042709B0932F813305BB97047038D10B403F015
S315000042800303284C34F8133003BB5DF8044B704726
S3150000429007EE903AB8EE677AD1ED047A90F82B30B3
S315000042A0F8EE676A03F01F03C6EE877A07EE103A48
S315000042B0B8EE477AF7EE006A37EE267A67EE877A27
S315000042C0FCEEE77A17EE903A8B617047520622D5DC
S315000042D0028D12F0100F0CBF0322002201EB8202A6
S315000042E007EE903AD2ED016A038DF8EE677AF8EEA2
S315000042F0666AC3F3052386EEA77A013307EE903A82
S31500004300FAEEEF7A67EE277AFCEEE77AC1ED067AE7
S315000043105DF8044B70470322E0E700BF7C03FE1FF5
S31500004320C4A70000D4A7000051B3062810B429D0B2
S3150000433005280AD004282DD0D8B1012842D0022859
S3150000434038D003282ED0032010E0224C0023E06949
S315000043500B60026AC2F3027290F8263003F007037C
S3150000436004EB830300205B68D3400B605DF8044BCD
S315000043707047184C0860E069026AC2F30232EBE744
S3150000438001207047134C0023E0690B60026AC2F3F8
S315000043900262E1E70F4C0023E0690B60026AC2F398
S315000043A00242D9E70B4C0023E0690B60026A02F077
S315000043B00702D1E7074C0023E0690B60026AC2F3EB
S315000043C00212C9E7034C0023E0690B60026AC2F3DC
S315000043D00222C1E77C03FE1F38B5084BDD6904469F
S315000043E0002001F081FC95F8303064F300030020D2
S315000043F085F8303001F048FC002038BD7C03FE1FF4
S3150000440010B5084BDC69002001F06EFC94F85230C0
S3150000441043F00103002084F8523001F035FC0020FF
S3150000442010BD00BF7C03FE1F10B5084BDC690020E1
S3150000443001F05AFC94F852306FF30003002084F820
S31500004440523001F021FC002010BD00BF7C03FE1F8E
S3150000445010B5084BDC69002001F046FC94F83E30AC
S3150000446043F08003002084F83E3001F00DFC00206C
S3150000447010BD00BF7C03FE1F10B5084BDC69002091
S3150000448001F032FC94F83E306FF3C713002084F835
S315000044903E3001F0F9FB002010BD00BF7C03FE1F7B
S315000044A010B5084BDC69002001F01EFC94F853306F
S315000044B043F00103002084F8533001F0E5FB0020AF
S315000044C010BD00BF7C03FE1F10B5084BDC69002041
S315000044D001F00AFC94F853306FF30003002084F8CF
S315000044E0533001F0D1FB002010BD00BF7C03FE1F3E
S315000044F038B5084BDD690446002001F0F5FB95F858
S31500004500243064F30613002085F8243001F0BCFB48
S31500004510002038BD7C03FE1F30B583B001F0A6F83D
S315000045204FF0E02301901D69186910F0020028D0B1
S31500004530DDED017A164CF8EE677AF7EE006A86EE44
S31500004540A77A0020186194F82320D1B2DFED117A02
S31500004550DFED116A27EE277AC6EE877AFCEEE77A58
S3150000456017EE902A013AB2F1807F0CD25A61F022FE
S3150000457084F8232001F0F001072298611A6184F87B
S31500004580231003B030BD12201D6103B030BD00BF43
S3150000459000ED00E00024744900401C4608B1FFF716
S315000045A0BBBF0320704700BF052827D070B5144B4A
S315000045B00428DD6904460E4606D195F88034DB07EB
S315000045C002D54FF4C87070BD002001F08DFB95F840
S315000045D03E306FF3C71385F83E3095F83E3066F3EC
S315000045E0061385F83E3095F83E3064F3020300204A
S315000045F085F83E3001F048FB002070BD032070476F
S315000046007C03FE1F38B5002402F0070261F30E3466
S315000046109DF810C09DF8141062F30A2463F3061483
S315000046200E4B6CF302041B6861F312449DF81810DC
S3150000463093F82A3061F31E749DF81C10054661F349
S315000046401A645B0748BF62F31244002001F04CFB7A
S315000046502C62BDE83840002001F016BB7C03FE1F2B
S3150000466010B5174BDC6994F84120D00706D494F8AE
S315000046704130DB074FF0000010D410BD1A6894F8E3
S31500004680263092F82820510603F0070313D4052B91
S3150000469001D0032BEBD140F2971010BD01F024FBA3
S315000046A094F841306FF30003002084F8413001F0A4
S315000046B0EBFA002010BD228DD206EAD4E7E700BF50
S315000046C07C03FE1F062070470620704706207047B1
S315000046D006207047024630B329B3144BDB6993F8C2
S315000046E026C0CCF3020C82F800C01A6AC2F302326A
S315000046F00A701A6AC2F302224A701A6AC2F30212D6
S315000047008A701A6AC2F30202CA701A6AC2F30242B5
S315000047100A711A6AC2F302724A711B6AC3F3026310
S3150000472000208B7170470120704700BF7C03FE1F7D
S315000047302DE9F84300295AD0002874D03D4DEB6985
S3150000474093F8AA4014F001046DD193F8A020196AD9
S315000047501C6A1F6A2E68C7F3021C1F6A07F0070E41
S315000047601F6AD3F820901B6AC3F30268B36802F08D
S315000047700302C1F30231C4F30224C7F30247C9F3AB
S31500004780027953B3032A28D133698B422DD8A34229
S315000047902BD8634529D8734527D84B4525D8BB4226
S315000047A023D8434521D80146012001F021F8EC69C0
S315000047B0002001F099FA94F8403043F0800384F821
S315000047C0403094F8403043F00103002084F8403034
S315000047D001F05AFA0020BDE8F883F368002BE2D016
S315000047E0022AE0D173698B42D1D90520F3E7114B38
S315000047F0DD6995F84130DB0718D408460C4601F010
S3150000480073FA95F8403064F3000385F8403095F864
S31500004810403064F3C713204685F8403001F034FA7F
S315000048202046BDE8F8830120BDE8F8834FF4CB703D
S31500004830BDE8F8837C03FE1F70B5434D88B028465B
S3150000484000F0C2FF414A00230321CDE90433CDE93C
S3150000485006330191D26804A901A89047049CEC6133
S315000048604FF6FF73029394F83630DE0754D50020D6
S3150000487001F03AFA94F8A530062262F3020384F8AE
S31500004880A530002001F000FA2B68EC69D3E9062375
S315000048902B612F4BAB6000204FF400434FF6FF76A1
S315000048A06A60A861EB606B61029601F01DFA94F8EC
S315000048B0803443F0010384F88034002001F0E4F9E9
S315000048C0EC69039694F88034D80714D5039BFBB1A2
S315000048D02B68226A93F8225094F82630002001F0C3
S315000048E003FA94F88034DB0727D4002001F0CCF9D2
S315000048F0002008B070BD039B002BE7D0039B013B53
S31500004900039394F88034DA07F5D5039B002BDFD1A7
S315000049104FF4CD7008B070BD94F83C30D90708D478
S31500004920029B33B1029B013B029394F83C30D907BA
S31500004930F6D5029B002B9AD1EAE794F8813423EA54
S31500004940050384F88134D0E77C03FE1F80AE0000A7
S3150000495000127A0005292ED8DFE801F00A11181F87
S31500004960260390F82A0000F0010080F0010070474D
S3150000497090F8360000F0010080F00100704790F8D2
S31500004980380000F0010080F00100704790F89004B4
S3150000499000F0010080F00100704790F8320000F04E
S315000049A0010080F00100704790F8800400F00100DB
S315000049B080F0010070470020704700BF052867D8C7
S315000049C070B5554D0446E86990F8263003F00703A4
S315000049D09C4282B020D0052B11D090F82A30DB07FC
S315000049E00DD5012C1CD190F84030DB0978D1214639
S315000049F0FFF7B0FF002866D1002002B070BD2B681B
S31500004A0093F828305E0669D5038D13F0100F0CBF9E
S31500004A10032300239C42E4D140F2911002B070BD02
S31500004A202146FFF797FF0028E6D0032CEE693CD01D
S31500004A30052C07D196F83C309B0654D440F29310CF
S31500004A4002B070BD34BB96F83C30D907F6D5204687
S31500004A5001F04AF996F8363043F0010386F836300D
S31500004A60002001F011F94FF6FF73019304E0019B5A
S31500004A7043B1019B013B0193E8692146FFF76AFFB9
S31500004A800028F4D1019B002BB6D14FF4CD70B4E7CA
S31500004A9003207047002001F027F9631E042BDFD89E
S31500004AA0DFE803F015320A2B240096F83C301A078B
S31500004AB0C4D5002001F018F996F8323043F001030E
S31500004AC086F83230CCE70020EE6901F00DF996F851
S31500004AD0383043F0010386F83830C1E7032399E7FD
S31500004AE040F2951089E7002001F0FEF896F82A308A
S31500004AF043F0010386F82A30B2E796F8803443F093
S31500004B00010386F88034ABE796F8903443F001034E
S31500004B1086F89034A4E700BF7C03FE1F05281DD845
S31500004B2008B5431E012B014608D9042806D068B1F2
S31500004B30032815D005281FD0002008BD194BD869B9
S31500004B40FFF708FF38B140F2911008BD154AD06949
S31500004B50FFF700FFF0B94FF4C87008BD0320704797
S31500004B60104AD069FFF7F6FE0028F4D0D36993F80F
S31500004B703C301B070BD512E00A4AD069FFF7EAFE64
S31500004B800028E8D0D36993F83C30990607D440F260
S31500004B90931008BDD36993F83C30DA07F7D54FF484
S31500004BA0C97008BD7C03FE1F30B583B04FF6FF7396
S31500004BB00446012001930D4601F096F800230DF1FD
S31500004BC003008DF8033000F0CBFC94F8AA30D80629
S31500004BD005D494F8A030D906C3F300120AD5019B78
S31500004BE0013B0193019B002BEFD1012001F04CF812
S31500004BF003B030BD94F8AA304FF6FF7162F300039C
S31500004C0084F8AA30019102E0019B013B019394F8DC
S31500004C10AA30DA0603D494F8A030DB0602D5019B4D
S31500004C20002BF1D194F8A030042D0CBF43F0030300
S31500004C3065F3010384F8A0304FF6FF73019302E099
S31500004C40019B013B019394F8AA30D80603D494F84B
S31500004C50A030D90602D5019B002BF1D194F8AA30D9
S31500004C60042D0CBF43F001036FF3000384F8AA3050
S31500004C704FF6FF73019302E0019B013B019394F809
S31500004C80AA30DA0603D494F8A030DB0602D5019BDD
S31500004C90002BF1D19DF8030000F076FC012000F016
S31500004CA0F3FF03B030BD00BF0428124B0ED002281C
S31500004CB00CD01A6892688A4207D3D86990F82A30CD
S31500004CC0DB0702D50321FFF76FBF7047D86990F85D
S31500004CD02A20D207EDD590F83220D207E9D590F8F0
S31500004CE03620D207E5D590F83820D207E1D5042141
S31500004CF0FFF75ABF7C03FE1F2DE9F041052888B057
S31500004D002BD80C46002900F0AE800B788A799342A6
S31500004D1023D34978994220D3E17899421DD8637903
S31500004D2093421AD32179914217D30428074619D002
S31500004D30674EF06990F8263003F007039F4228D0AB
S31500004D40002F00F0BC80032F40F0AE8090F83C307E
S31500004D501A071ED440F2931500E00325284608B032
S31500004D60BDE8F081134340F0A880594EF06990F8F1
S31500004D704030DB0940F0A18090F8263003F00703AD
S31500004D80042B06D03946FFF7E5FD002800F09D808C
S31500004D90F069036A036A036A036A036A036A036AB9
S31500004DA00021C3F30268FFF7FFFE00238DF81030E1
S31500004DB08DF81C3006EB8703A2795B68D340059318
S31500004DC0F3691A6A93F8263003F0070306EB8303A8
S31500004DD0C2F302625B6804A8D340069300F056FC57
S31500004DE005460028BAD1A379984541D20393637941
S31500004DF0029323790193E3780093A378627821786C
S31500004E00F069FFF7FFFBF469284600F06DFF94F8A0
S31500004E10263067F30203284684F8263000F034FF74
S31500004E20F3691A6A93F8263003F0070306EB830644
S31500004E30C2F3026273680121D34004A88DF81010F2
S31500004E40069300F023FC0546002887D100F00EFCEF
S31500004E50204B01461860002837D03846FFF724FF5C
S31500004E60FFF75AFB7AE70125284608B0BDE8F0812E
S31500004E70D6F81C8000F038FF98F8263067F3020356
S31500004E80284688F8263000F0FFFEA379039363795D
S31500004E90029323790193E3780093A37862782178CB
S31500004EA0F069FFF7AFFBBBE7052F7FF46BAF90F818
S31500004EB03C309B063FF56DAF4CE705254EE790F875
S31500004EC03C30D9073FF565AF44E74FF4C87545E771
S31500004ED07C03FE1F3004FE1F2DE9F0432DED028BEF
S31500004EE0042883B0044668D0012800F0498120BB1D
S31500004EF0B74DEE6996F83C30DB0700F1538196F822
S31500004F00AA30DF0700F1558196F8A030002000F0A6
S31500004F10EBFE96F836306FF3000386F83630002045
S31500004F2000F0B2FE4FF6FF73EA690193052C1BD819
S31500004F30DFE804F0343E392F2016032800F0CE8037
S31500004F4005285BD0A24D0020EE6900F0CDFEA31E21
S31500004F50032BE4D8DFE813F00D0106014400BB0083
S31500004F6092F82A30DB0709D5019B3BB1019B013B37
S31500004F700193DBE792F88034D907F5D4019B002B27
S31500004F8014BF00204FF4CD7003B0BDEC028BBDE81A
S31500004F90F08392F83230DD07E6D4EFE792F8363048
S31500004FA0DB07E1D4EAE792F89034DE07DCD4E5E7E4
S31500004FB092F83830DF07D7D4E0E7854D2B68EE69E5
S31500004FC093F82270002000F08FFE96F88034D907FF
S31500004FD00DD4002000F058FE0020EE6900F084FE9B
S31500004FE096F880346FF3000386F8803497E796F8D6
S31500004FF0813423EA070386F88134EAE70E4600295E
S3150000500000F0EE80724D72782B6893F8241091426E
S31500005010C0F0DB8093F8262096ED017A07EE902A01
S31500005020F8EE677AF4EEC77AF1EE10FA00F1CD8069
S3150000503093F8253007EE903AF8EE677AB4EEE77A01
S31500005040F1EE10FA00F1C1803178032902D000296F
S3150000505040F0BB80E869FFF77DFC002800F0C280C5
S31500005060EF6997F83C30990600F19C8097F8AA30D2
S31500005070DA0700F1BA8097F8A03096F80080002091
S3150000508000F032FE3B8DB8F1030F0CBF6FF3041333
S3150000509043F010033B85002000F0F6FD2B68EF6916
S315000050A093F8283096F8018003F03003102B00F0B7
S315000050B0D080202B00F09F803846FFF7C9F8E869BA
S315000050C00021FFF771FD0020EE6900F00DFE96F855
S315000050D02A306FF3000386F82A3020E73C4DEF694B
S315000050E097F83C301E075DD497F8AA30D80771D4DC
S315000050F097F8A0302B68002093F8276093F820805B
S3150000510093F8219000F0F0FD97F8133406FA09F2AF
S315000051105BB25A4002EA08025340DBB287F8133406
S31500005120002000F0B1FDEE69002000F0DDFD96F8EC
S3150000513013346FF3861386F81334002000F0A4FDB1
S31500005140EE69002000F0D0FD96F8A230052262F349
S31500005150030386F8A230002000F096FD0020EE69D9
S3150000516000F0C2FD96F832306FF3000386F8323055
S31500005170D5E696F890346FF3000386F89034CEE6C1
S31500005180134DEE6996F8AA30DA0718D496F8A030CF
S31500005190002000F0A9FD96F838306FF3000386F87A
S315000051A03830BCE640F2931003B0BDEC028BBDE88C
S315000051B0F08330460321FFF7F7FCEE69A6E630469A
S315000051C00321FFF7F1FCEE69E2E70320DCE600BF0E
S315000051D07C03FE1F38462146FFF7E6FCEF6989E7A8
S315000051E00120D1E64FF4CA70CEE638460321FFF718
S315000051F0DBFCEF6941E72F4B002033F8188000F005
S3150000520073FD97F82B3068F3871387F82B3000204F
S3150000521000F03AFD2B68EF6993F8283096ED018A85
S3150000522003F03003102B2ED0202B10D1002000F0DD
S315000052305BFDFCEEC87A97F82B2017EE903A013BFF
S3150000524063F3040287F82B20002000F01DFDEF69B0
S3150000525032E7194B002033F8189000F045FD3B8DDE
S3150000526069F301033B85002000F00EFD2B6893F8DF
S31500005270283003F03003202BBDD0102BEF697FF4CC
S315000052801BAF96ED018A002000F02EFD78EE087A1D
S315000052903A8DFCEEE77A002017EE903A013B63F375
S315000052A00D223A8500F0F0FC2B6893F8283003F0C5
S315000052B03003B9E7BCA70000CCA7000005280AD830
S315000052C008B5194A431ED269042B27D8DFE803F034
S315000052D00D21171C05000320704792F82A30DB07C2
S315000052E007D5BDE80840FFF7F7BD92F83830DB0771
S315000052F0F7D41046FEF7ACFF40F2911008BD92F8C5
S315000053003230DB07EDD4F4E792F88034DB07E8D4DB
S31500005310EFE792F89034DB07E3D4EAE792F8363009
S31500005320DB07DED4E5E700BF7C03FE1F2DE9F04373
S3150000533083B0012801910C461CD0022803D000201E
S3150000534003B0BDE8F0830529164619D0DFF8A08022
S31500005350D8F81C002146FFF7FDFA00283DD1311D83
S315000053602046FFF7B9FD0028E9D040F29113984294
S31500005370E5D0E5E7084603B0BDE8F043FFF71EBBFE
S315000053801279052A27D8DFF868801146D8F81C005C
S31500005390FFF7E0FA30BB31461046FFF79DFDA8B98E
S315000053A096F804904FF6FE7540F2931701E0013D22
S315000053B0C6D04846FFF7B2FBB842F8D00028C7D09F
S315000053C06FF4C873C318012BC2D9B9E740F2911321
S315000053D09842E5D0B4E70320B2E7D8F81C00FEF700
S315000053E037FFACE7D8F81C00FEF732FFD8E700BF5E
S315000053F07C03FE1F2DE9F04782B0002854D0DFF869
S315000054005C810678D8F81C3090F815A093F82670C1
S315000054101A6A1A6A1A6A1A6A1A6A1A6A1B6AC37CAA
S315000054208DF80230037D8DF80130C37D8DF8033091
S315000054308146837D007E8DF800A0052E07F00707C4
S315000054408DF804308DF8050029D806F108036B4461
S3150000545013F8083C012B22D0022809D199F8043010
S31500005460052B1CD808336B4413F8083C012B16D0C7
S315000054704A460521FFF75AFF0446002849D140F263
S315000054809115E1B24A4650460134FFF74FFF08B185
S31500005490A84249D1052C0CD01DF804A0F1E703243D
S315000054A0204602B0BDE8F0870124204602B0BDE8E0
S315000054B0F0874FF6FE7540F2931A01E0013DEFD0FA
S315000054C03046FFF72BFB50450446F7D020B16FF46A
S315000054D0C8754319012BE3D8042E27D0002509F1FE
S315000054E00C013046FFF708FC04460028D8D1BE421E
S315000054F006D007F108036B4413F8083C012B0ED0C5
S31500005500002DCDD000F0B2F801463046FFF7CCFBB7
S31500005510C6E740F291139842C2D10024AFE738465D
S31500005520FFF74CFA0028EBD00446B9E7D8F81C3050
S3150000553093F82A20D0070ED593F83220D1070AD542
S3150000554093F83620D20706D593F8385005F00105B2
S3150000555085F00105C3E70125C1E700BF7C03FE1FF7
S31500005560034668B1074AB2F80011C1F30001197089
S3150000557092F800316FF30003002082F80031704783
S315000055800120704700C00140104991F8043143F0F2
S31500005590010381F80431B1F804318446D8070AD5ED
S315000055A04FF0FF3300E07BB1B1F80421D20703F1DD
S315000055B0FF33F8D443B1054A92F800316CF3000387
S315000055C0002082F8003170471420704700C0014067
S315000055D070B5244D82B02B6898470120FFF7D4FFA1
S315000055E0AE6800210320B0471F4AEC69019240F2E1
S315000055F00313ADF800300320A047B0F5C97FFAD1F8
S3150000560069460520B04728B140F29113984201D06F
S3150000561000BEEC690520A047B0F5C97FFAD1012389
S31500005620022200218DF806102C698DF800308DF8C5
S3150000563001208DF802208DF803308DF805208DF8B5
S31500005640043069460520A04700B100BE2B6E042039
S315000056509847AB6A01209847EB6A9847AB6D984725
S3150000566002B070BD50A700000000A04100B5064B77
S3150000567083B000229B69019201A9062098470198F0
S3150000568003B05DF804FB00BF50A7000010B4037818
S315000056902BB1012B3BD000205DF8044B70474268CC
S315000056A03F498A424CD93F4B3F4C4FF0F10C83F8AF
S315000056B004C0197A41F004011972197A41F00801FF
S315000056C01972197A41F001011972197A41F0020131
S315000056D01972A2424FF0F00119715BD983F804C028
S315000056E01A7A42F010021A721971022303732F49B3
S315000056F091F81C2102F007029A423EBF91F81C2144
S3150000570063F3020281F81C210378012BC3D183685D
S31500005710234A93421FD9244A934231D9234A017B13
S3150000572092F81C3103F007039942B4D092F81C3169
S3150000573061F3020382F81C3100205DF8044B7047C8
S315000057401B498A4229D8194A037392F81C315DF81D
S31500005750044B00207047134BF1221A711A7A6FF32B
S3150000576082021A721A7A6FF3C3021A721A7A6FF3E6
S3150000577000021A721A7AF0216FF341021A72197135
S31500005780084BF1221A711A7AF0216FF304121A7279
S315000057901971C3E7074B9A42A7D801230373A6E7FB
S315000057A0000E27070020004000C2EB0B00C001409E
S315000057B000B4C40400688909037823F0030343F0A6
S315000057C003030370704700BF014B0360704700BFBF
S315000057D0DCA700008C224623C0E90023704700BFE7
S315000057E002483022002103F0C3BB00BFE403FE1FC2
S315000057F0024B43F820100020704700BFE403FE1F51
S3150000580008B56F4BB3F84031D80700F1CB806C4B2D
S31500005810B3F84031990700F1B880694BB3F84031CD
S315000058205A0700F1A580664BB3F840311B0700F11B
S315000058309280634BB3F84031D8067FD4604BB3F8FF
S3150000584040315906C3F380106CD45D4BB3F8403138
